{
  "contractName": "Test_FullData",
  "abi": [
    {
      "constant": true,
      "inputs": [
        {
          "name": "",
          "type": "address"
        },
        {
          "name": "",
          "type": "uint256"
        }
      ],
      "name": "allDocument",
      "outputs": [
        {
          "name": "id",
          "type": "address"
        },
        {
          "name": "section",
          "type": "uint256"
        },
        {
          "name": "numberOfsection",
          "type": "uint256"
        },
        {
          "name": "district",
          "type": "string"
        },
        {
          "name": "docNo",
          "type": "uint256"
        },
        {
          "name": "county",
          "type": "string"
        },
        {
          "name": "province",
          "type": "string"
        },
        {
          "name": "name",
          "type": "string"
        },
        {
          "name": "identificationNumber",
          "type": "uint256"
        },
        {
          "name": "size",
          "type": "uint256"
        }
      ],
      "payable": false,
      "stateMutability": "view",
      "type": "function",
      "signature": "0x50d53846"
    },
    {
      "constant": true,
      "inputs": [
        {
          "name": "",
          "type": "uint256"
        },
        {
          "name": "",
          "type": "uint256"
        }
      ],
      "name": "allList",
      "outputs": [
        {
          "name": "traNo",
          "type": "uint256"
        },
        {
          "name": "docNo",
          "type": "uint256"
        },
        {
          "name": "mortgage",
          "type": "address"
        },
        {
          "name": "mortgagee",
          "type": "address"
        },
        {
          "name": "money",
          "type": "uint256"
        },
        {
          "name": "detail",
          "type": "string"
        }
      ],
      "payable": false,
      "stateMutability": "view",
      "type": "function",
      "signature": "0x9366a13e"
    },
    {
      "constant": true,
      "inputs": [
        {
          "name": "",
          "type": "uint256"
        }
      ],
      "name": "allEndTransaction",
      "outputs": [
        {
          "name": "traNo",
          "type": "uint256"
        },
        {
          "name": "docNo",
          "type": "uint256"
        },
        {
          "name": "status",
          "type": "bool"
        }
      ],
      "payable": false,
      "stateMutability": "view",
      "type": "function",
      "signature": "0xad407de7"
    },
    {
      "anonymous": false,
      "inputs": [
        {
          "indexed": false,
          "name": "str",
          "type": "string"
        }
      ],
      "name": "print_string",
      "type": "event",
      "signature": "0xa5014519207066148cceb1209c0da9b5bc063b5c80fb25da53261714be79574b"
    },
    {
      "anonymous": false,
      "inputs": [
        {
          "indexed": false,
          "name": "size",
          "type": "uint256"
        }
      ],
      "name": "print_uint",
      "type": "event",
      "signature": "0x692c952151b417a9943d2d683df661e7680bee63e10c12a77b4681793f8c3435"
    },
    {
      "anonymous": false,
      "inputs": [
        {
          "indexed": false,
          "name": "section",
          "type": "uint256"
        },
        {
          "indexed": false,
          "name": "numberOfsection",
          "type": "uint256"
        },
        {
          "indexed": false,
          "name": "district",
          "type": "string"
        },
        {
          "indexed": false,
          "name": "docNo",
          "type": "uint256"
        },
        {
          "indexed": false,
          "name": "county",
          "type": "string"
        },
        {
          "indexed": false,
          "name": "province",
          "type": "string"
        },
        {
          "indexed": false,
          "name": "name",
          "type": "string"
        },
        {
          "indexed": false,
          "name": "identificationNumber",
          "type": "uint256"
        },
        {
          "indexed": false,
          "name": "size",
          "type": "uint256"
        }
      ],
      "name": "print_document",
      "type": "event",
      "signature": "0xa1e4c19d18c840a2a14cee5bbebeafbbd32c0eb0b7f7da1f0bc395b213acde2d"
    },
    {
      "anonymous": false,
      "inputs": [
        {
          "indexed": false,
          "name": "array",
          "type": "uint256[]"
        }
      ],
      "name": "print_arrayuint",
      "type": "event",
      "signature": "0x7197ce5b3a06fe18260727614c230654460f7adcef1514e66678a01ab7cb772d"
    },
    {
      "anonymous": false,
      "inputs": [
        {
          "indexed": false,
          "name": "traNo",
          "type": "uint256[]"
        },
        {
          "indexed": false,
          "name": "mortgagee",
          "type": "address[]"
        },
        {
          "indexed": false,
          "name": "money",
          "type": "uint256[]"
        },
        {
          "indexed": false,
          "name": "status",
          "type": "bool[]"
        }
      ],
      "name": "print_transaction",
      "type": "event",
      "signature": "0xf3d9f77a2bb75c4277c8590c6a0c792c1294985d5a23d72927676f60fadf34be"
    },
    {
      "constant": false,
      "inputs": [
        {
          "name": "id",
          "type": "address"
        },
        {
          "name": "section",
          "type": "uint256"
        },
        {
          "name": "numberOfsection",
          "type": "uint256"
        },
        {
          "name": "district",
          "type": "string"
        },
        {
          "name": "docNo",
          "type": "uint256"
        },
        {
          "name": "county",
          "type": "string"
        },
        {
          "name": "province",
          "type": "string"
        },
        {
          "name": "name",
          "type": "string"
        },
        {
          "name": "identificationNumber",
          "type": "uint256"
        },
        {
          "name": "size",
          "type": "uint256"
        }
      ],
      "name": "sendDocument",
      "outputs": [],
      "payable": false,
      "stateMutability": "nonpayable",
      "type": "function",
      "signature": "0xaf35eee8"
    },
    {
      "constant": false,
      "inputs": [
        {
          "name": "_docNo",
          "type": "uint256"
        },
        {
          "name": "_mortgage",
          "type": "address"
        },
        {
          "name": "_mortgagee",
          "type": "address"
        },
        {
          "name": "_money",
          "type": "uint256"
        },
        {
          "name": "_datail",
          "type": "string"
        }
      ],
      "name": "saveTransaction",
      "outputs": [],
      "payable": false,
      "stateMutability": "nonpayable",
      "type": "function",
      "signature": "0x69deff30"
    },
    {
      "constant": false,
      "inputs": [
        {
          "name": "_docNo",
          "type": "uint256"
        },
        {
          "name": "_traNo",
          "type": "uint256"
        }
      ],
      "name": "endTransaction",
      "outputs": [],
      "payable": false,
      "stateMutability": "nonpayable",
      "type": "function",
      "signature": "0x85c3e72f"
    },
    {
      "constant": false,
      "inputs": [
        {
          "name": "_docNo",
          "type": "uint256"
        }
      ],
      "name": "getDocument",
      "outputs": [],
      "payable": false,
      "stateMutability": "nonpayable",
      "type": "function",
      "signature": "0x3f9b250a"
    },
    {
      "constant": false,
      "inputs": [
        {
          "name": "_docNo",
          "type": "uint256"
        }
      ],
      "name": "getTransaction",
      "outputs": [],
      "payable": false,
      "stateMutability": "nonpayable",
      "type": "function",
      "signature": "0x33ea3dc8"
    }
  ],
  "bytecode": "0x60806040526000805534801561001457600080fd5b506123d1806100246000396000f3fe60806040526004361061008e576000357c0100000000000000000000000000000000000000000000000000000000900463ffffffff16806333ea3dc8146100935780633f9b250a146100ce57806350d538461461010957806369deff301461037757806385c3e72f146104935780639366a13e146104d8578063ad407de714610611578063af35eee814610672575b600080fd5b34801561009f57600080fd5b506100cc600480360360208110156100b657600080fd5b8101908080359060200190929190505050610952565b005b3480156100da57600080fd5b50610107600480360360208110156100f157600080fd5b81019080803590602001909291905050506112ee565b005b34801561011557600080fd5b506101626004803603604081101561012c57600080fd5b81019080803573ffffffffffffffffffffffffffffffffffffffff169060200190929190803590602001909291905050506119e5565b604051808b73ffffffffffffffffffffffffffffffffffffffff1673ffffffffffffffffffffffffffffffffffffffff1681526020018a81526020018981526020018060200188815260200180602001806020018060200187815260200186815260200185810385528c818151815260200191508051906020019080838360005b838110156101fe5780820151818401526020810190506101e3565b50505050905090810190601f16801561022b5780820380516001836020036101000a031916815260200191505b5085810384528a818151815260200191508051906020019080838360005b83811015610264578082015181840152602081019050610249565b50505050905090810190601f1680156102915780820380516001836020036101000a031916815260200191505b50858103835289818151815260200191508051906020019080838360005b838110156102ca5780820151818401526020810190506102af565b50505050905090810190601f1680156102f75780820380516001836020036101000a031916815260200191505b50858103825288818151815260200191508051906020019080838360005b83811015610330578082015181840152602081019050610315565b50505050905090810190601f16801561035d5780820380516001836020036101000a031916815260200191505b509e50505050505050505050505050505060405180910390f35b34801561038357600080fd5b50610491600480360360a081101561039a57600080fd5b8101908080359060200190929190803573ffffffffffffffffffffffffffffffffffffffff169060200190929190803573ffffffffffffffffffffffffffffffffffffffff169060200190929190803590602001909291908035906020019064010000000081111561040b57600080fd5b82018360208201111561041d57600080fd5b8035906020019184600183028401116401000000008311171561043f57600080fd5b91908080601f016020809104026020016040519081016040528093929190818152602001838380828437600081840152601f19601f820116905080830192505050505050509192919290505050611cd5565b005b34801561049f57600080fd5b506104d6600480360360408110156104b657600080fd5b810190808035906020019092919080359060200190929190505050611e5e565b005b3480156104e457600080fd5b5061051b600480360360408110156104fb57600080fd5b810190808035906020019092919080359060200190929190505050611ed7565b604051808781526020018681526020018573ffffffffffffffffffffffffffffffffffffffff1673ffffffffffffffffffffffffffffffffffffffff1681526020018473ffffffffffffffffffffffffffffffffffffffff1673ffffffffffffffffffffffffffffffffffffffff16815260200183815260200180602001828103825283818151815260200191508051906020019080838360005b838110156105d15780820151818401526020810190506105b6565b50505050905090810190601f1680156105fe5780820380516001836020036101000a031916815260200191505b5097505050505050505060405180910390f35b34801561061d57600080fd5b5061064a6004803603602081101561063457600080fd5b8101908080359060200190929190505050612007565b6040518084815260200183815260200182151515158152602001935050505060405180910390f35b34801561067e57600080fd5b50610950600480360361014081101561069657600080fd5b81019080803573ffffffffffffffffffffffffffffffffffffffff1690602001909291908035906020019092919080359060200190929190803590602001906401000000008111156106e757600080fd5b8201836020820111156106f957600080fd5b8035906020019184600183028401116401000000008311171561071b57600080fd5b91908080601f016020809104026020016040519081016040528093929190818152602001838380828437600081840152601f19601f820116905080830192505050505050509192919290803590602001909291908035906020019064010000000081111561078857600080fd5b82018360208201111561079a57600080fd5b803590602001918460018302840111640100000000831117156107bc57600080fd5b91908080601f016020809104026020016040519081016040528093929190818152602001838380828437600081840152601f19601f8201169050808301925050505050505091929192908035906020019064010000000081111561081f57600080fd5b82018360208201111561083157600080fd5b8035906020019184600183028401116401000000008311171561085357600080fd5b91908080601f016020809104026020016040519081016040528093929190818152602001838380828437600081840152601f19601f820116905080830192505050505050509192919290803590602001906401000000008111156108b657600080fd5b8201836020820111156108c857600080fd5b803590602001918460018302840111640100000000831117156108ea57600080fd5b91908080601f016020809104026020016040519081016040528093929190818152602001838380828437600081840152601f19601f820116905080830192505050505050509192919290803590602001909291908035906020019092919050505061203e565b005b6060600160003373ffffffffffffffffffffffffffffffffffffffff1673ffffffffffffffffffffffffffffffffffffffff168152602001908152602001600020805480602002602001604051908101604052809291908181526020016000905b82821015610cf757838290600052602060002090600a020161014060405190810160405290816000820160009054906101000a900473ffffffffffffffffffffffffffffffffffffffff1673ffffffffffffffffffffffffffffffffffffffff1673ffffffffffffffffffffffffffffffffffffffff1681526020016001820154815260200160028201548152602001600382018054600181600116156101000203166002900480601f016020809104026020016040519081016040528092919081815260200182805460018160011615610100020316600290048015610adb5780601f10610ab057610100808354040283529160200191610adb565b820191906000526020600020905b815481529060010190602001808311610abe57829003601f168201915b5050505050815260200160048201548152602001600582018054600181600116156101000203166002900480601f016020809104026020016040519081016040528092919081815260200182805460018160011615610100020316600290048015610b875780601f10610b5c57610100808354040283529160200191610b87565b820191906000526020600020905b815481529060010190602001808311610b6a57829003601f168201915b50505050508152602001600682018054600181600116156101000203166002900480601f016020809104026020016040519081016040528092919081815260200182805460018160011615610100020316600290048015610c295780601f10610bfe57610100808354040283529160200191610c29565b820191906000526020600020905b815481529060010190602001808311610c0c57829003601f168201915b50505050508152602001600782018054600181600116156101000203166002900480601f016020809104026020016040519081016040528092919081815260200182805460018160011615610100020316600290048015610ccb5780601f10610ca057610100808354040283529160200191610ccb565b820191906000526020600020905b815481529060010190602001808311610cae57829003601f168201915b5050505050815260200160088201548152602001600982015481525050815260200190600101906109b3565b505050509050600080600090505b8251811015610d5d57838382815181101515610d1d57fe5b90602001906020020151608001511415610d50578281815181101515610d3f57fe5b906020019060200201516000015191505b8080600101915050610d05565b50606060026000858152602001908152602001600020805480602002602001604051908101604052809291908181526020016000905b82821015610f32578382906000526020600020906006020160c0604051908101604052908160008201548152602001600182015481526020016002820160009054906101000a900473ffffffffffffffffffffffffffffffffffffffff1673ffffffffffffffffffffffffffffffffffffffff1673ffffffffffffffffffffffffffffffffffffffff1681526020016003820160009054906101000a900473ffffffffffffffffffffffffffffffffffffffff1673ffffffffffffffffffffffffffffffffffffffff1673ffffffffffffffffffffffffffffffffffffffff16815260200160048201548152602001600582018054600181600116156101000203166002900480601f016020809104026020016040519081016040528092919081815260200182805460018160011615610100020316600290048015610f1a5780601f10610eef57610100808354040283529160200191610f1a565b820191906000526020600020905b815481529060010190602001808311610efd57829003601f168201915b50505050508152505081526020019060010190610d93565b50505050905060608151604051908082528060200260200182016040528015610f6a5781602001602082028038833980820191505090505b50905060608251604051908082528060200260200182016040528015610f9f5781602001602082028038833980820191505090505b50905060608351604051908082528060200260200182016040528015610fd45781602001602082028038833980820191505090505b509050606084516040519080825280602002602001820160405280156110095781602001602082028038833980820191505090505b50905060008090505b855181101561119057858181518110151561102957fe5b9060200190602002015160000151858281518110151561104557fe5b9060200190602002018181525050858181518110151561106157fe5b9060200190602002015160600151848281518110151561107d57fe5b9060200190602002019073ffffffffffffffffffffffffffffffffffffffff16908173ffffffffffffffffffffffffffffffffffffffff168152505085818151811015156110c757fe5b906020019060200201516080015183828151811015156110e357fe5b906020019060200201818152505060036000878381518110151561110357fe5b9060200190602002015160000151815260200190815260200160002060020160009054906101000a900460ff161561115e576001828281518110151561114557fe5b9060200190602002019015159081151581525050611183565b6000828281518110151561116e57fe5b90602001906020020190151590811515815250505b8080600101915050611012565b507ff3d9f77a2bb75c4277c8590c6a0c792c1294985d5a23d72927676f60fadf34be848484846040518080602001806020018060200180602001858103855289818151815260200191508051906020019060200280838360005b838110156112055780820151818401526020810190506111ea565b50505050905001858103845288818151815260200191508051906020019060200280838360005b8381101561124757808201518184015260208101905061122c565b50505050905001858103835287818151815260200191508051906020019060200280838360005b8381101561128957808201518184015260208101905061126e565b50505050905001858103825286818151815260200191508051906020019060200280838360005b838110156112cb5780820151818401526020810190506112b0565b505050509050019850505050505050505060405180910390a15050505050505050565b6060600160003373ffffffffffffffffffffffffffffffffffffffff1673ffffffffffffffffffffffffffffffffffffffff168152602001908152602001600020805480602002602001604051908101604052809291908181526020016000905b8282101561169357838290600052602060002090600a020161014060405190810160405290816000820160009054906101000a900473ffffffffffffffffffffffffffffffffffffffff1673ffffffffffffffffffffffffffffffffffffffff1673ffffffffffffffffffffffffffffffffffffffff1681526020016001820154815260200160028201548152602001600382018054600181600116156101000203166002900480601f0160208091040260200160405190810160405280929190818152602001828054600181600116156101000203166002900480156114775780601f1061144c57610100808354040283529160200191611477565b820191906000526020600020905b81548152906001019060200180831161145a57829003601f168201915b5050505050815260200160048201548152602001600582018054600181600116156101000203166002900480601f0160208091040260200160405190810160405280929190818152602001828054600181600116156101000203166002900480156115235780601f106114f857610100808354040283529160200191611523565b820191906000526020600020905b81548152906001019060200180831161150657829003601f168201915b50505050508152602001600682018054600181600116156101000203166002900480601f0160208091040260200160405190810160405280929190818152602001828054600181600116156101000203166002900480156115c55780601f1061159a576101008083540402835291602001916115c5565b820191906000526020600020905b8154815290600101906020018083116115a857829003601f168201915b50505050508152602001600782018054600181600116156101000203166002900480601f0160208091040260200160405190810160405280929190818152602001828054600181600116156101000203166002900480156116675780601f1061163c57610100808354040283529160200191611667565b820191906000526020600020905b81548152906001019060200180831161164a57829003601f168201915b50505050508152602001600882015481526020016009820154815250508152602001906001019061134f565b50505050905060008090505b81518110156119df578282828151811015156116b757fe5b906020019060200201516080015114156119d2577fa1e4c19d18c840a2a14cee5bbebeafbbd32c0eb0b7f7da1f0bc395b213acde2d82828151811015156116fa57fe5b9060200190602002015160200151838381518110151561171657fe5b9060200190602002015160400151848481518110151561173257fe5b9060200190602002015160600151858581518110151561174e57fe5b9060200190602002015160800151868681518110151561176a57fe5b9060200190602002015160a00151878781518110151561178657fe5b9060200190602002015160c0015188888151811015156117a257fe5b9060200190602002015160e0015189898151811015156117be57fe5b9060200190602002015161010001518a8a8151811015156117db57fe5b906020019060200201516101200151604051808a81526020018981526020018060200188815260200180602001806020018060200187815260200186815260200185810385528c818151815260200191508051906020019080838360005b83811015611854578082015181840152602081019050611839565b50505050905090810190601f1680156118815780820380516001836020036101000a031916815260200191505b5085810384528a818151815260200191508051906020019080838360005b838110156118ba57808201518184015260208101905061189f565b50505050905090810190601f1680156118e75780820380516001836020036101000a031916815260200191505b50858103835289818151815260200191508051906020019080838360005b83811015611920578082015181840152602081019050611905565b50505050905090810190601f16801561194d5780820380516001836020036101000a031916815260200191505b50858103825288818151815260200191508051906020019080838360005b8381101561198657808201518184015260208101905061196b565b50505050905090810190601f1680156119b35780820380516001836020036101000a031916815260200191505b509d505050505050505050505050505060405180910390a150506119e2565b808060010191505061169f565b50505b50565b600160205281600052604060002081815481101515611a0057fe5b90600052602060002090600a0201600091509150508060000160009054906101000a900473ffffffffffffffffffffffffffffffffffffffff1690806001015490806002015490806003018054600181600116156101000203166002900480601f016020809104026020016040519081016040528092919081815260200182805460018160011615610100020316600290048015611adf5780601f10611ab457610100808354040283529160200191611adf565b820191906000526020600020905b815481529060010190602001808311611ac257829003601f168201915b505050505090806004015490806005018054600181600116156101000203166002900480601f016020809104026020016040519081016040528092919081815260200182805460018160011615610100020316600290048015611b835780601f10611b5857610100808354040283529160200191611b83565b820191906000526020600020905b815481529060010190602001808311611b6657829003601f168201915b505050505090806006018054600181600116156101000203166002900480601f016020809104026020016040519081016040528092919081815260200182805460018160011615610100020316600290048015611c215780601f10611bf657610100808354040283529160200191611c21565b820191906000526020600020905b815481529060010190602001808311611c0457829003601f168201915b505050505090806007018054600181600116156101000203166002900480601f016020809104026020016040519081016040528092919081815260200182805460018160011615610100020316600290048015611cbf5780601f10611c9457610100808354040283529160200191611cbf565b820191906000526020600020905b815481529060010190602001808311611ca257829003601f168201915b505050505090806008015490806009015490508a565b611cdd61220f565b60c06040519081016040528060005481526020018781526020018673ffffffffffffffffffffffffffffffffffffffff1681526020018573ffffffffffffffffffffffffffffffffffffffff168152602001848152602001838152509050600260008781526020019081526020016000208190806001815401808255809150509060018203906000526020600020906006020160009091929091909150600082015181600001556020820151816001015560408201518160020160006101000a81548173ffffffffffffffffffffffffffffffffffffffff021916908373ffffffffffffffffffffffffffffffffffffffff16021790555060608201518160030160006101000a81548173ffffffffffffffffffffffffffffffffffffffff021916908373ffffffffffffffffffffffffffffffffffffffff1602179055506080820151816004015560a0820151816005019080519060200190611e42929190612272565b5050505060016000808282540192505081905550505050505050565b611e666122f2565b6060604051908101604052808481526020018381526020016001151581525090508060036000848152602001908152602001600020600082015181600001556020820151816001015560408201518160020160006101000a81548160ff021916908315150217905550905050505050565b600260205281600052604060002081815481101515611ef257fe5b9060005260206000209060060201600091509150508060000154908060010154908060020160009054906101000a900473ffffffffffffffffffffffffffffffffffffffff16908060030160009054906101000a900473ffffffffffffffffffffffffffffffffffffffff1690806004015490806005018054600181600116156101000203166002900480601f016020809104026020016040519081016040528092919081815260200182805460018160011615610100020316600290048015611ffd5780601f10611fd257610100808354040283529160200191611ffd565b820191906000526020600020905b815481529060010190602001808311611fe057829003601f168201915b5050505050905086565b60036020528060005260406000206000915090508060000154908060010154908060020160009054906101000a900460ff16905083565b612046612316565b610140604051908101604052808c73ffffffffffffffffffffffffffffffffffffffff1681526020018b81526020018a8152602001898152602001888152602001878152602001868152602001858152602001848152602001838152509050600160008c73ffffffffffffffffffffffffffffffffffffffff1673ffffffffffffffffffffffffffffffffffffffff168152602001908152602001600020819080600181540180825580915050906001820390600052602060002090600a02016000909192909190915060008201518160000160006101000a81548173ffffffffffffffffffffffffffffffffffffffff021916908373ffffffffffffffffffffffffffffffffffffffff16021790555060208201518160010155604082015181600201556060820151816003019080519060200190612187929190612272565b506080820151816004015560a08201518160050190805190602001906121ae929190612272565b5060c08201518160060190805190602001906121cb929190612272565b5060e08201518160070190805190602001906121e8929190612272565b50610100820151816008015561012082015181600901555050505050505050505050505050565b60c0604051908101604052806000815260200160008152602001600073ffffffffffffffffffffffffffffffffffffffff168152602001600073ffffffffffffffffffffffffffffffffffffffff16815260200160008152602001606081525090565b828054600181600116156101000203166002900490600052602060002090601f016020900481019282601f106122b357805160ff19168380011785556122e1565b828001600101855582156122e1579182015b828111156122e05782518255916020019190600101906122c5565b5b5090506122ee9190612380565b5090565b60606040519081016040528060008152602001600081526020016000151581525090565b61014060405190810160405280600073ffffffffffffffffffffffffffffffffffffffff1681526020016000815260200160008152602001606081526020016000815260200160608152602001606081526020016060815260200160008152602001600081525090565b6123a291905b8082111561239e576000816000905550600101612386565b5090565b9056fea165627a7a723058205c8971762cc8d30d7b5c18ba2c298f421f5ba43e48f65e8f835c5e971eddd4f50029",
  "source": "pragma solidity >=0.4.0 <0.6.0;\r\n\r\n\r\ncontract Test_FullData {\r\n\r\n    event print_string(string str);\r\n    event print_uint(uint size);\r\n    event print_document(uint section,\r\n        uint numberOfsection,\r\n        string district,\r\n        uint docNo,\r\n        string county,\r\n        string province,\r\n        string name,\r\n        uint identificationNumber,\r\n        uint size);\r\n    event print_arrayuint(uint[] array);\r\n    event print_transaction(uint[] traNo,\r\n        address[] mortgagee,\r\n        uint[] money,\r\n        bool[] status);\r\n\r\n    uint private transactionNumber = 0;\r\n\r\n    //()   key\r\n    struct document {\r\n        address id;\r\n        //1. \r\n        uint section; //\r\n        uint numberOfsection; //\r\n        string district; //\r\n        //2.\r\n        uint docNo; // \r\n        string county; //\r\n        string province; //\r\n        //3.\r\n        string name; //  frisname+lastname\r\n        uint identificationNumber; //\r\n        //4.\r\n        uint size;\r\n        //5.>    \r\n    }\r\n    mapping(address => document[]) public allDocument;\r\n\r\n    //()\r\n    struct transaction {\r\n        uint traNo;\r\n        //..other data\r\n        uint docNo; // \r\n        address mortgage; // \r\n        address mortgagee; // \r\n        uint money; // \r\n        string detail; // \r\n    }\r\n    mapping(uint => transaction[]) public allList;\r\n\r\n    //()\r\n    struct endtransaction {\r\n        uint traNo;\r\n        //..other data\r\n        uint docNo; // \r\n        bool status;\r\n    }\r\n    mapping(uint => endtransaction) public allEndTransaction;\r\n\r\n    //\r\n    function sendDocument(address id,\r\n    uint section,\r\n    uint numberOfsection,\r\n    string memory district,\r\n    uint docNo,\r\n    string memory county,\r\n    string memory province,\r\n    string memory name,\r\n    uint identificationNumber,\r\n    uint size) public {\r\n        //authen by admin...\r\n        //require\r\n        document memory newDocument = document(id,\r\n        section,\r\n        numberOfsection,\r\n        district,\r\n        docNo,\r\n        county,\r\n        province,\r\n        name,\r\n        identificationNumber,\r\n        size);\r\n        allDocument[id].push(newDocument);\r\n    }\r\n\r\n    //\r\n    function saveTransaction(uint _docNo,address _mortgage,address _mortgagee,uint _money,string memory _datail) public {\r\n        //require\r\n        //require(msg.sender == );\r\n        //\r\n        //if(checkContract(_docNo)){\r\n        transaction memory newTransaction = transaction(transactionNumber, _docNo,  _mortgage, _mortgagee, _money, _datail);\r\n        allList[_docNo].push(newTransaction);\r\n        transactionNumber+=1;\r\n        //}else{\r\n          //  emit print_string(\"fail\");\r\n        //}\r\n    }\r\n    //\r\n    function endTransaction(uint _docNo, uint _traNo) public {\r\n        //require\r\n        //require(msg.sender == );\r\n        //\r\n        endtransaction memory newEndTransaction =  endtransaction(_docNo, _traNo, true);\r\n        allEndTransaction[_traNo] = newEndTransaction;\r\n    }\r\n    //\r\n    function getDocument(uint _docNo) public {\r\n        //authen by user...\r\n        document[] memory tmpDoc = allDocument[msg.sender];\r\n        //require\r\n\r\n        for(uint idx = 0; idx < tmpDoc.length; idx++){\r\n            if(tmpDoc[idx].docNo==_docNo){\r\n                emit print_document(tmpDoc[idx].section,\r\n                tmpDoc[idx].numberOfsection,\r\n                tmpDoc[idx].district,\r\n                tmpDoc[idx].docNo,\r\n                tmpDoc[idx].county,\r\n                tmpDoc[idx].province,\r\n                tmpDoc[idx].name,\r\n                tmpDoc[idx].identificationNumber,\r\n                tmpDoc[idx].size);\r\n                return;\r\n            }\r\n        }\r\n    }\r\n    //\r\n    function getTransaction(uint _docNo) public {\r\n        //authen by user...\r\n        document[] memory tmpDoc = allDocument[msg.sender];\r\n        address docOwner;\r\n        for(uint idx = 0; idx < tmpDoc.length; idx++){\r\n            if(tmpDoc[idx].docNo==_docNo){\r\n                docOwner=tmpDoc[idx].id;\r\n            }\r\n        }\r\n        //require\r\n        //require(docOwner == msg.sender);\r\n\r\n        transaction[] memory tmpTran = allList[_docNo];\r\n        uint[] memory traNo = new uint[](tmpTran.length);\r\n        address[] memory mortgagee = new address[](tmpTran.length);\r\n        uint[] memory money = new uint[](tmpTran.length);\r\n        bool[] memory status = new bool[](tmpTran.length);\r\n        for(uint idx = 0; idx < tmpTran.length; idx++){\r\n            traNo[idx] = tmpTran[idx].traNo;\r\n            mortgagee[idx] = tmpTran[idx].mortgagee;\r\n            money[idx] = tmpTran[idx].money;\r\n            if(allEndTransaction[tmpTran[idx].traNo].status){\r\n                status[idx] = true;\r\n            } else {\r\n                status[idx] = false;\r\n            }\r\n        }\r\n        emit print_transaction(traNo,mortgagee,money,status);\r\n        return;\r\n    }\r\n\r\n    //\r\n    function checkContract(uint _docNo) private view returns(bool) {\r\n        //authen by user...\r\n        //require\r\n        transaction[] memory tmpTran = allList[_docNo];\r\n        if(tmpTran.length==0){\r\n            return true;\r\n        } else {\r\n            if(allEndTransaction[tmpTran[0].traNo].status){\r\n                return true;\r\n            }\r\n            return false;\r\n        }\r\n    }\r\n}\r\n",
  "sourcePath": "C:/Users/Swiss/Desktop/test/contracts/Test_FullData.sol",
  "compiler": {
    "name": "solc",
    "version": "0.5.0+commit.1d4f565a.Emscripten.clang"
  },
  "schemaVersion": "3.0.0",
  "updatedAt": "2019-01-26T16:35:32.999Z",
  "devdoc": {
    "methods": {}
  },
  "userdoc": {
    "methods": {}
  }
}