{
  "contractName": "Test_FullData",
  "abi": [
    {
      "constant": true,
      "inputs": [
        {
          "name": "",
          "type": "uint256"
        },
        {
          "name": "",
          "type": "uint256"
        }
      ],
      "name": "allEndTransaction",
      "outputs": [
        {
          "name": "traNo",
          "type": "uint256"
        },
        {
          "name": "status",
          "type": "bool"
        }
      ],
      "payable": false,
      "stateMutability": "view",
      "type": "function",
      "signature": "0x3b224f8c"
    },
    {
      "constant": true,
      "inputs": [
        {
          "name": "",
          "type": "address"
        },
        {
          "name": "",
          "type": "uint256"
        }
      ],
      "name": "allDocument",
      "outputs": [
        {
          "name": "id",
          "type": "address"
        },
        {
          "name": "section",
          "type": "uint256"
        },
        {
          "name": "numberOfsection",
          "type": "uint256"
        },
        {
          "name": "district",
          "type": "string"
        },
        {
          "name": "docNo",
          "type": "uint256"
        },
        {
          "name": "county",
          "type": "string"
        },
        {
          "name": "province",
          "type": "string"
        },
        {
          "name": "name",
          "type": "string"
        },
        {
          "name": "nationality",
          "type": "string"
        },
        {
          "name": "size",
          "type": "uint256"
        }
      ],
      "payable": false,
      "stateMutability": "view",
      "type": "function",
      "signature": "0x50d53846"
    },
    {
      "constant": true,
      "inputs": [
        {
          "name": "",
          "type": "uint256"
        },
        {
          "name": "",
          "type": "uint256"
        }
      ],
      "name": "allList",
      "outputs": [
        {
          "name": "traNo",
          "type": "uint256"
        },
        {
          "name": "docNo",
          "type": "uint256"
        },
        {
          "name": "mortgage",
          "type": "address"
        },
        {
          "name": "mortgagee",
          "type": "address"
        },
        {
          "name": "money",
          "type": "uint256"
        },
        {
          "name": "detail",
          "type": "string"
        }
      ],
      "payable": false,
      "stateMutability": "view",
      "type": "function",
      "signature": "0x9366a13e"
    },
    {
      "anonymous": false,
      "inputs": [
        {
          "indexed": false,
          "name": "str",
          "type": "string"
        }
      ],
      "name": "print_string",
      "type": "event",
      "signature": "0xa5014519207066148cceb1209c0da9b5bc063b5c80fb25da53261714be79574b"
    },
    {
      "anonymous": false,
      "inputs": [
        {
          "indexed": false,
          "name": "size",
          "type": "uint256"
        }
      ],
      "name": "print_uint",
      "type": "event",
      "signature": "0x692c952151b417a9943d2d683df661e7680bee63e10c12a77b4681793f8c3435"
    },
    {
      "anonymous": false,
      "inputs": [
        {
          "indexed": false,
          "name": "section",
          "type": "uint256"
        },
        {
          "indexed": false,
          "name": "numberOfsection",
          "type": "uint256"
        },
        {
          "indexed": false,
          "name": "district",
          "type": "string"
        },
        {
          "indexed": false,
          "name": "docNo",
          "type": "uint256"
        },
        {
          "indexed": false,
          "name": "county",
          "type": "string"
        },
        {
          "indexed": false,
          "name": "province",
          "type": "string"
        },
        {
          "indexed": false,
          "name": "name",
          "type": "string"
        },
        {
          "indexed": false,
          "name": "nationality",
          "type": "string"
        },
        {
          "indexed": false,
          "name": "size",
          "type": "uint256"
        }
      ],
      "name": "print_document",
      "type": "event",
      "signature": "0x10a19bf8962a5ef50d20dc3f6b90c40a666b880a9215fc321bde36161b586116"
    },
    {
      "anonymous": false,
      "inputs": [
        {
          "indexed": false,
          "name": "array",
          "type": "uint256[]"
        }
      ],
      "name": "print_arrayuint",
      "type": "event",
      "signature": "0x7197ce5b3a06fe18260727614c230654460f7adcef1514e66678a01ab7cb772d"
    },
    {
      "anonymous": false,
      "inputs": [
        {
          "indexed": false,
          "name": "traNo",
          "type": "uint256[]"
        },
        {
          "indexed": false,
          "name": "mortgagee",
          "type": "address[]"
        },
        {
          "indexed": false,
          "name": "money",
          "type": "uint256[]"
        }
      ],
      "name": "print_transaction",
      "type": "event",
      "signature": "0xa67053bc1a15c1a9ba7bb821fc523e3abe013274323ab8fc20ec33ba0a6054c6"
    },
    {
      "constant": false,
      "inputs": [
        {
          "name": "id",
          "type": "address"
        },
        {
          "name": "section",
          "type": "uint256"
        },
        {
          "name": "numberOfsection",
          "type": "uint256"
        },
        {
          "name": "district",
          "type": "string"
        },
        {
          "name": "docNo",
          "type": "uint256"
        },
        {
          "name": "county",
          "type": "string"
        },
        {
          "name": "province",
          "type": "string"
        },
        {
          "name": "name",
          "type": "string"
        },
        {
          "name": "nationality",
          "type": "string"
        },
        {
          "name": "size",
          "type": "uint256"
        }
      ],
      "name": "sendDocument",
      "outputs": [],
      "payable": false,
      "stateMutability": "nonpayable",
      "type": "function",
      "signature": "0x93ebf88b"
    },
    {
      "constant": false,
      "inputs": [
        {
          "name": "_docNo",
          "type": "uint256"
        },
        {
          "name": "_mortgage",
          "type": "address"
        },
        {
          "name": "_mortgagee",
          "type": "address"
        },
        {
          "name": "_money",
          "type": "uint256"
        },
        {
          "name": "_datail",
          "type": "string"
        }
      ],
      "name": "saveTransaction",
      "outputs": [],
      "payable": false,
      "stateMutability": "nonpayable",
      "type": "function",
      "signature": "0x69deff30"
    },
    {
      "constant": false,
      "inputs": [
        {
          "name": "_docNo",
          "type": "uint256"
        },
        {
          "name": "_traNo",
          "type": "uint256"
        }
      ],
      "name": "endTransaction",
      "outputs": [],
      "payable": false,
      "stateMutability": "nonpayable",
      "type": "function",
      "signature": "0x85c3e72f"
    },
    {
      "constant": false,
      "inputs": [
        {
          "name": "_docNo",
          "type": "uint256"
        }
      ],
      "name": "getDocument",
      "outputs": [],
      "payable": false,
      "stateMutability": "nonpayable",
      "type": "function",
      "signature": "0x3f9b250a"
    },
    {
      "constant": false,
      "inputs": [
        {
          "name": "_docNo",
          "type": "uint256"
        }
      ],
      "name": "getLastTransaction",
      "outputs": [],
      "payable": false,
      "stateMutability": "nonpayable",
      "type": "function",
      "signature": "0x45838c42"
    },
    {
      "constant": false,
      "inputs": [
        {
          "name": "_docNo",
          "type": "uint256"
        }
      ],
      "name": "getTransaction",
      "outputs": [],
      "payable": false,
      "stateMutability": "nonpayable",
      "type": "function",
      "signature": "0x33ea3dc8"
    }
  ],
  "bytecode": "0x608060405234801561001057600080fd5b50612621806100206000396000f3fe608060405260043610610099576000357c0100000000000000000000000000000000000000000000000000000000900463ffffffff16806333ea3dc81461009e5780633b224f8c146100d95780633f9b250a1461013d57806345838c421461017857806350d53846146101b357806369deff301461048657806385c3e72f146105a25780639366a13e146105e757806393ebf88b14610720575b600080fd5b3480156100aa57600080fd5b506100d7600480360360208110156100c157600080fd5b8101908080359060200190929190505050610a8d565b005b3480156100e557600080fd5b5061011c600480360360408110156100fc57600080fd5b810190808035906020019092919080359060200190929190505050610f0a565b60405180838152602001821515151581526020019250505060405180910390f35b34801561014957600080fd5b506101766004803603602081101561016057600080fd5b8101908080359060200190929190505050610f57565b005b34801561018457600080fd5b506101b16004803603602081101561019b57600080fd5b810190808035906020019092919050505061174a565b005b3480156101bf57600080fd5b5061020c600480360360408110156101d657600080fd5b81019080803573ffffffffffffffffffffffffffffffffffffffff169060200190929190803590602001909291905050506119e0565b604051808b73ffffffffffffffffffffffffffffffffffffffff1673ffffffffffffffffffffffffffffffffffffffff1681526020018a8152602001898152602001806020018881526020018060200180602001806020018060200187815260200186810386528d818151815260200191508051906020019080838360005b838110156102a657808201518184015260208101905061028b565b50505050905090810190601f1680156102d35780820380516001836020036101000a031916815260200191505b5086810385528b818151815260200191508051906020019080838360005b8381101561030c5780820151818401526020810190506102f1565b50505050905090810190601f1680156103395780820380516001836020036101000a031916815260200191505b5086810384528a818151815260200191508051906020019080838360005b83811015610372578082015181840152602081019050610357565b50505050905090810190601f16801561039f5780820380516001836020036101000a031916815260200191505b50868103835289818151815260200191508051906020019080838360005b838110156103d85780820151818401526020810190506103bd565b50505050905090810190601f1680156104055780820380516001836020036101000a031916815260200191505b50868103825288818151815260200191508051906020019080838360005b8381101561043e578082015181840152602081019050610423565b50505050905090810190601f16801561046b5780820380516001836020036101000a031916815260200191505b509f5050505050505050505050505050505060405180910390f35b34801561049257600080fd5b506105a0600480360360a08110156104a957600080fd5b8101908080359060200190929190803573ffffffffffffffffffffffffffffffffffffffff169060200190929190803573ffffffffffffffffffffffffffffffffffffffff169060200190929190803590602001909291908035906020019064010000000081111561051a57600080fd5b82018360208201111561052c57600080fd5b8035906020019184600183028401116401000000008311171561054e57600080fd5b91908080601f016020809104026020016040519081016040528093929190818152602001838380828437600081840152601f19601f820116905080830192505050505050509192919290505050611d68565b005b3480156105ae57600080fd5b506105e5600480360360408110156105c557600080fd5b8101908080359060200190929190803590602001909291905050506120c1565b005b3480156105f357600080fd5b5061062a6004803603604081101561060a57600080fd5b810190808035906020019092919080359060200190929190505050612154565b604051808781526020018681526020018573ffffffffffffffffffffffffffffffffffffffff1673ffffffffffffffffffffffffffffffffffffffff1681526020018473ffffffffffffffffffffffffffffffffffffffff1673ffffffffffffffffffffffffffffffffffffffff16815260200183815260200180602001828103825283818151815260200191508051906020019080838360005b838110156106e05780820151818401526020810190506106c5565b50505050905090810190601f16801561070d5780820380516001836020036101000a031916815260200191505b5097505050505050505060405180910390f35b34801561072c57600080fd5b50610a8b600480360361014081101561074457600080fd5b81019080803573ffffffffffffffffffffffffffffffffffffffff16906020019092919080359060200190929190803590602001909291908035906020019064010000000081111561079557600080fd5b8201836020820111156107a757600080fd5b803590602001918460018302840111640100000000831117156107c957600080fd5b91908080601f016020809104026020016040519081016040528093929190818152602001838380828437600081840152601f19601f820116905080830192505050505050509192919290803590602001909291908035906020019064010000000081111561083657600080fd5b82018360208201111561084857600080fd5b8035906020019184600183028401116401000000008311171561086a57600080fd5b91908080601f016020809104026020016040519081016040528093929190818152602001838380828437600081840152601f19601f820116905080830192505050505050509192919290803590602001906401000000008111156108cd57600080fd5b8201836020820111156108df57600080fd5b8035906020019184600183028401116401000000008311171561090157600080fd5b91908080601f016020809104026020016040519081016040528093929190818152602001838380828437600081840152601f19601f8201169050808301925050505050505091929192908035906020019064010000000081111561096457600080fd5b82018360208201111561097657600080fd5b8035906020019184600183028401116401000000008311171561099857600080fd5b91908080601f016020809104026020016040519081016040528093929190818152602001838380828437600081840152601f19601f820116905080830192505050505050509192919290803590602001906401000000008111156109fb57600080fd5b820183602082011115610a0d57600080fd5b80359060200191846001830284011164010000000083111715610a2f57600080fd5b91908080601f016020809104026020016040519081016040528093929190818152602001838380828437600081840152601f19601f82011690508083019250505050505050919291929080359060200190929190505050612284565b005b606060016000838152602001908152602001600020805480602002602001604051908101604052809291908181526020016000905b82821015610c61578382906000526020600020906006020160c0604051908101604052908160008201548152602001600182015481526020016002820160009054906101000a900473ffffffffffffffffffffffffffffffffffffffff1673ffffffffffffffffffffffffffffffffffffffff1673ffffffffffffffffffffffffffffffffffffffff1681526020016003820160009054906101000a900473ffffffffffffffffffffffffffffffffffffffff1673ffffffffffffffffffffffffffffffffffffffff1673ffffffffffffffffffffffffffffffffffffffff16815260200160048201548152602001600582018054600181600116156101000203166002900480601f016020809104026020016040519081016040528092919081815260200182805460018160011615610100020316600290048015610c495780601f10610c1e57610100808354040283529160200191610c49565b820191906000526020600020905b815481529060010190602001808311610c2c57829003601f168201915b50505050508152505081526020019060010190610ac2565b50505050905060608151604051908082528060200260200182016040528015610c995781602001602082028038833980820191505090505b50905060608251604051908082528060200260200182016040528015610cce5781602001602082028038833980820191505090505b50905060608351604051908082528060200260200182016040528015610d035781602001602082028038833980820191505090505b50905060008090505b8451811015610df8578481815181101515610d2357fe5b90602001906020020151600001518482815181101515610d3f57fe5b90602001906020020181815250508481815181101515610d5b57fe5b90602001906020020151606001518382815181101515610d7757fe5b9060200190602002019073ffffffffffffffffffffffffffffffffffffffff16908173ffffffffffffffffffffffffffffffffffffffff16815250508481815181101515610dc157fe5b90602001906020020151608001518282815181101515610ddd57fe5b90602001906020020181815250508080600101915050610d0c565b507fa67053bc1a15c1a9ba7bb821fc523e3abe013274323ab8fc20ec33ba0a6054c683838360405180806020018060200180602001848103845287818151815260200191508051906020019060200280838360005b83811015610e68578082015181840152602081019050610e4d565b50505050905001848103835286818151815260200191508051906020019060200280838360005b83811015610eaa578082015181840152602081019050610e8f565b50505050905001848103825285818151815260200191508051906020019060200280838360005b83811015610eec578082015181840152602081019050610ed1565b50505050905001965050505050505060405180910390a15050505050565b600260205281600052604060002081815481101515610f2557fe5b9060005260206000209060020201600091509150508060000154908060010160009054906101000a900460ff16905082565b60606000803373ffffffffffffffffffffffffffffffffffffffff1673ffffffffffffffffffffffffffffffffffffffff168152602001908152602001600020805480602002602001604051908101604052809291908181526020016000905b8282101561139357838290600052602060002090600a020161014060405190810160405290816000820160009054906101000a900473ffffffffffffffffffffffffffffffffffffffff1673ffffffffffffffffffffffffffffffffffffffff1673ffffffffffffffffffffffffffffffffffffffff1681526020016001820154815260200160028201548152602001600382018054600181600116156101000203166002900480601f0160208091040260200160405190810160405280929190818152602001828054600181600116156101000203166002900480156110df5780601f106110b4576101008083540402835291602001916110df565b820191906000526020600020905b8154815290600101906020018083116110c257829003601f168201915b5050505050815260200160048201548152602001600582018054600181600116156101000203166002900480601f01602080910402602001604051908101604052809291908181526020018280546001816001161561010002031660029004801561118b5780601f106111605761010080835404028352916020019161118b565b820191906000526020600020905b81548152906001019060200180831161116e57829003601f168201915b50505050508152602001600682018054600181600116156101000203166002900480601f01602080910402602001604051908101604052809291908181526020018280546001816001161561010002031660029004801561122d5780601f106112025761010080835404028352916020019161122d565b820191906000526020600020905b81548152906001019060200180831161121057829003601f168201915b50505050508152602001600782018054600181600116156101000203166002900480601f0160208091040260200160405190810160405280929190818152602001828054600181600116156101000203166002900480156112cf5780601f106112a4576101008083540402835291602001916112cf565b820191906000526020600020905b8154815290600101906020018083116112b257829003601f168201915b50505050508152602001600882018054600181600116156101000203166002900480601f0160208091040260200160405190810160405280929190818152602001828054600181600116156101000203166002900480156113715780601f1061134657610100808354040283529160200191611371565b820191906000526020600020905b81548152906001019060200180831161135457829003601f168201915b5050505050815260200160098201548152505081526020019060010190610fb7565b50505050905060008090505b8151811015611744578282828151811015156113b757fe5b90602001906020020151608001511415611737577f10a19bf8962a5ef50d20dc3f6b90c40a666b880a9215fc321bde36161b58611682828151811015156113fa57fe5b9060200190602002015160200151838381518110151561141657fe5b9060200190602002015160400151848481518110151561143257fe5b9060200190602002015160600151858581518110151561144e57fe5b9060200190602002015160800151868681518110151561146a57fe5b9060200190602002015160a00151878781518110151561148657fe5b9060200190602002015160c0015188888151811015156114a257fe5b9060200190602002015160e0015189898151811015156114be57fe5b9060200190602002015161010001518a8a8151811015156114db57fe5b906020019060200201516101200151604051808a8152602001898152602001806020018881526020018060200180602001806020018060200187815260200186810386528d818151815260200191508051906020019080838360005b83811015611552578082015181840152602081019050611537565b50505050905090810190601f16801561157f5780820380516001836020036101000a031916815260200191505b5086810385528b818151815260200191508051906020019080838360005b838110156115b857808201518184015260208101905061159d565b50505050905090810190601f1680156115e55780820380516001836020036101000a031916815260200191505b5086810384528a818151815260200191508051906020019080838360005b8381101561161e578082015181840152602081019050611603565b50505050905090810190601f16801561164b5780820380516001836020036101000a031916815260200191505b50868103835289818151815260200191508051906020019080838360005b83811015611684578082015181840152602081019050611669565b50505050905090810190601f1680156116b15780820380516001836020036101000a031916815260200191505b50868103825288818151815260200191508051906020019080838360005b838110156116ea5780820151818401526020810190506116cf565b50505050905090810190601f1680156117175780820380516001836020036101000a031916815260200191505b509e50505050505050505050505050505060405180910390a15050611747565b808060010191505061139f565b50505b50565b606060016000838152602001908152602001600020805480602002602001604051908101604052809291908181526020016000905b8282101561191e578382906000526020600020906006020160c0604051908101604052908160008201548152602001600182015481526020016002820160009054906101000a900473ffffffffffffffffffffffffffffffffffffffff1673ffffffffffffffffffffffffffffffffffffffff1673ffffffffffffffffffffffffffffffffffffffff1681526020016003820160009054906101000a900473ffffffffffffffffffffffffffffffffffffffff1673ffffffffffffffffffffffffffffffffffffffff1673ffffffffffffffffffffffffffffffffffffffff16815260200160048201548152602001600582018054600181600116156101000203166002900480601f0160208091040260200160405190810160405280929190818152602001828054600181600116156101000203166002900480156119065780601f106118db57610100808354040283529160200191611906565b820191906000526020600020905b8154815290600101906020018083116118e957829003601f168201915b5050505050815250508152602001906001019061177f565b5050505090507fa5014519207066148cceb1209c0da9b5bc063b5c80fb25da53261714be79574b81600081518110151561195457fe5b9060200190602002015160a001516040518080602001828103825283818151815260200191508051906020019080838360005b838110156119a2578082015181840152602081019050611987565b50505050905090810190601f1680156119cf5780820380516001836020036101000a031916815260200191505b509250505060405180910390a15050565b6000602052816000526040600020818154811015156119fb57fe5b90600052602060002090600a0201600091509150508060000160009054906101000a900473ffffffffffffffffffffffffffffffffffffffff1690806001015490806002015490806003018054600181600116156101000203166002900480601f016020809104026020016040519081016040528092919081815260200182805460018160011615610100020316600290048015611ada5780601f10611aaf57610100808354040283529160200191611ada565b820191906000526020600020905b815481529060010190602001808311611abd57829003601f168201915b505050505090806004015490806005018054600181600116156101000203166002900480601f016020809104026020016040519081016040528092919081815260200182805460018160011615610100020316600290048015611b7e5780601f10611b5357610100808354040283529160200191611b7e565b820191906000526020600020905b815481529060010190602001808311611b6157829003601f168201915b505050505090806006018054600181600116156101000203166002900480601f016020809104026020016040519081016040528092919081815260200182805460018160011615610100020316600290048015611c1c5780601f10611bf157610100808354040283529160200191611c1c565b820191906000526020600020905b815481529060010190602001808311611bff57829003601f168201915b505050505090806007018054600181600116156101000203166002900480601f016020809104026020016040519081016040528092919081815260200182805460018160011615610100020316600290048015611cba5780601f10611c8f57610100808354040283529160200191611cba565b820191906000526020600020905b815481529060010190602001808311611c9d57829003601f168201915b505050505090806008018054600181600116156101000203166002900480601f016020809104026020016040519081016040528092919081815260200182805460018160011615610100020316600290048015611d585780601f10611d2d57610100808354040283529160200191611d58565b820191906000526020600020905b815481529060010190602001808311611d3b57829003601f168201915b505050505090806009015490508a565b606060016000878152602001908152602001600020805480602002602001604051908101604052809291908181526020016000905b82821015611f3c578382906000526020600020906006020160c0604051908101604052908160008201548152602001600182015481526020016002820160009054906101000a900473ffffffffffffffffffffffffffffffffffffffff1673ffffffffffffffffffffffffffffffffffffffff1673ffffffffffffffffffffffffffffffffffffffff1681526020016003820160009054906101000a900473ffffffffffffffffffffffffffffffffffffffff1673ffffffffffffffffffffffffffffffffffffffff1673ffffffffffffffffffffffffffffffffffffffff16815260200160048201548152602001600582018054600181600116156101000203166002900480601f016020809104026020016040519081016040528092919081815260200182805460018160011615610100020316600290048015611f245780601f10611ef957610100808354040283529160200191611f24565b820191906000526020600020905b815481529060010190602001808311611f0757829003601f168201915b50505050508152505081526020019060010190611d9d565b505050509050600081519050611f50612467565b60c0604051908101604052808381526020018981526020018873ffffffffffffffffffffffffffffffffffffffff1681526020018773ffffffffffffffffffffffffffffffffffffffff168152602001868152602001858152509050600160008981526020019081526020016000208190806001815401808255809150509060018203906000526020600020906006020160009091929091909150600082015181600001556020820151816001015560408201518160020160006101000a81548173ffffffffffffffffffffffffffffffffffffffff021916908373ffffffffffffffffffffffffffffffffffffffff16021790555060608201518160030160006101000a81548173ffffffffffffffffffffffffffffffffffffffff021916908373ffffffffffffffffffffffffffffffffffffffff1602179055506080820151816004015560a08201518160050190805190602001906120b39291906124ca565b505050505050505050505050565b6120c961254a565b60408051908101604052808381526020016001151581525090506002600084815260200190815260200160002081908060018154018082558091505090600182039060005260206000209060020201600090919290919091506000820151816000015560208201518160010160006101000a81548160ff021916908315150217905550505050505050565b60016020528160005260406000208181548110151561216f57fe5b9060005260206000209060060201600091509150508060000154908060010154908060020160009054906101000a900473ffffffffffffffffffffffffffffffffffffffff16908060030160009054906101000a900473ffffffffffffffffffffffffffffffffffffffff1690806004015490806005018054600181600116156101000203166002900480601f01602080910402602001604051908101604052809291908181526020018280546001816001161561010002031660029004801561227a5780601f1061224f5761010080835404028352916020019161227a565b820191906000526020600020905b81548152906001019060200180831161225d57829003601f168201915b5050505050905086565b61228c612566565b610140604051908101604052808c73ffffffffffffffffffffffffffffffffffffffff1681526020018b81526020018a81526020018981526020018881526020018781526020018681526020018581526020018481526020018381525090506000808c73ffffffffffffffffffffffffffffffffffffffff1673ffffffffffffffffffffffffffffffffffffffff168152602001908152602001600020819080600181540180825580915050906001820390600052602060002090600a02016000909192909190915060008201518160000160006101000a81548173ffffffffffffffffffffffffffffffffffffffff021916908373ffffffffffffffffffffffffffffffffffffffff160217905550602082015181600101556040820151816002015560608201518160030190805190602001906123cc9291906124ca565b506080820151816004015560a08201518160050190805190602001906123f39291906124ca565b5060c08201518160060190805190602001906124109291906124ca565b5060e082015181600701908051906020019061242d9291906124ca565b5061010082015181600801908051906020019061244b9291906124ca565b5061012082015181600901555050505050505050505050505050565b60c0604051908101604052806000815260200160008152602001600073ffffffffffffffffffffffffffffffffffffffff168152602001600073ffffffffffffffffffffffffffffffffffffffff16815260200160008152602001606081525090565b828054600181600116156101000203166002900490600052602060002090601f016020900481019282601f1061250b57805160ff1916838001178555612539565b82800160010185558215612539579182015b8281111561253857825182559160200191906001019061251d565b5b50905061254691906125d0565b5090565b6040805190810160405280600081526020016000151581525090565b61014060405190810160405280600073ffffffffffffffffffffffffffffffffffffffff1681526020016000815260200160008152602001606081526020016000815260200160608152602001606081526020016060815260200160608152602001600081525090565b6125f291905b808211156125ee5760008160009055506001016125d6565b5090565b9056fea165627a7a723058209fcd2cca61e1ed3d555045c786b8a80df847c6af772f22244f98a80625296c640029",
  "source": "pragma solidity >=0.4.0 <0.6.0;\r\n\r\n\r\ncontract Test_FullData {\r\n\r\n    event print_string(string str);\r\n    event print_uint(uint size);\r\n    event print_document(uint section,\r\n        uint numberOfsection,\r\n        string district,\r\n        uint docNo,\r\n        string county,\r\n        string province,\r\n        string name,\r\n        string nationality,\r\n        uint size);\r\n    event print_arrayuint(uint[] array);\r\n    event print_transaction(uint[] traNo,\r\n        address[] mortgagee,\r\n        uint[] money);\r\n\r\n    //()   key\r\n    struct document {\r\n        address id;\r\n        //1. \r\n        uint section; //\r\n        uint numberOfsection; //\r\n        string district; //\r\n        //2.\r\n        uint docNo; // \r\n        string county; //\r\n        string province; //\r\n        //3.\r\n        string name; //  frisname+lastname\r\n        string nationality; //\r\n        //4.\r\n        uint size;\r\n        //5.>    \r\n    }\r\n    mapping(address => document[]) public allDocument;\r\n    //()\r\n    struct transaction {\r\n        uint traNo;\r\n        //..other data\r\n        uint docNo; // \r\n        address mortgage; // \r\n        address mortgagee; // \r\n        uint money; // \r\n        string detail; // \r\n    }\r\n    mapping(uint => transaction[]) public allList;\r\n\r\n\r\n\r\n    //()\r\n    struct endtransaction {\r\n        uint traNo;\r\n        //..other data\r\n        bool status;\r\n    }\r\n    mapping(uint => endtransaction[]) public allEndTransaction;\r\n\r\n    //\r\n    function sendDocument(address id,\r\n    uint section,\r\n    uint numberOfsection,\r\n    string memory district,\r\n    uint docNo,\r\n    string memory county,\r\n    string memory province,\r\n    string memory name,\r\n    string memory nationality,\r\n    uint size) public {\r\n        //authen by admin...\r\n        //require\r\n        document memory newDocument = document(id,\r\n        section,\r\n        numberOfsection,\r\n        district,\r\n        docNo,\r\n        county,\r\n        province,\r\n        name,\r\n        nationality,\r\n        size);\r\n        allDocument[id].push(newDocument);\r\n    }\r\n\r\n    //\r\n    function saveTransaction(uint _docNo,address _mortgage,address _mortgagee,uint _money,string memory _datail) public {\r\n        //require\r\n        //\r\n        //if(checkContract(_docNo)){\r\n        // uint _traNo=1;\r\n        // for(uint idx = 0; idx < allList.length; idx++){\r\n        //     _traNo=_traNo+allList[idx].length;\r\n        // }\r\n        transaction[] memory tmpTran = allList[_docNo];\r\n        uint _traNo = tmpTran.length; //   ****\r\n        transaction memory newTransaction = transaction(_traNo, _docNo,  _mortgage, _mortgagee, _money, _datail);\r\n        allList[_docNo].push(newTransaction);\r\n        //}else{\r\n          //  emit print_string(\"fail\");\r\n        //}\r\n    }\r\n    //\r\n    function endTransaction(uint _docNo, uint _traNo) public {\r\n        //require\r\n        //\r\n        endtransaction memory newEndTransaction =  endtransaction(_traNo, true);\r\n        allEndTransaction[_docNo].push(newEndTransaction);\r\n    }\r\n    //\r\n    function getDocument(uint _docNo) public {\r\n        //authen by user...\r\n        //require\r\n        document[] memory tmpDoc = allDocument[msg.sender];\r\n        for(uint idx = 0; idx < tmpDoc.length; idx++){\r\n            if(tmpDoc[idx].docNo==_docNo){\r\n                emit print_document(tmpDoc[idx].section,\r\n                tmpDoc[idx].numberOfsection,\r\n                tmpDoc[idx].district,\r\n                tmpDoc[idx].docNo,\r\n                tmpDoc[idx].county,\r\n                tmpDoc[idx].province,\r\n                tmpDoc[idx].name,\r\n                tmpDoc[idx].nationality,\r\n                tmpDoc[idx].size);\r\n                return;\r\n            }\r\n        }\r\n    }\r\n    //  \r\n    function getLastTransaction(uint _docNo) public {\r\n        //authen by user...\r\n        //require\r\n        transaction[] memory tmpTran = allList[_docNo];\r\n        emit print_string(tmpTran[0].detail);\r\n        return;\r\n    }\r\n\r\n    function getTransaction(uint _docNo) public {\r\n        //authen by user...\r\n        //require\r\n        transaction[] memory tmpTran = allList[_docNo];\r\n        uint[] memory traNo = new uint[](tmpTran.length);\r\n        address[] memory mortgagee = new address[](tmpTran.length);\r\n        uint[] memory money = new uint[](tmpTran.length);\r\n        for(uint idx = 0; idx < tmpTran.length; idx++){\r\n            traNo[idx] = tmpTran[idx].traNo;\r\n            mortgagee[idx] = tmpTran[idx].mortgagee;\r\n            money[idx] = tmpTran[idx].money;\r\n        }\r\n        emit print_transaction(traNo,mortgagee,money);\r\n        return;\r\n    }\r\n\r\n    //\r\n    function checkContract(uint _docNo) private view returns(bool) {\r\n        //authen by user...\r\n        //require\r\n        transaction[] memory tmpTran = allList[_docNo];\r\n        endtransaction[] memory tmpEndTran = allEndTransaction[_docNo];\r\n        if(tmpTran.length==0){\r\n            return true;\r\n        } else {\r\n            for(uint idx = 0; idx < tmpEndTran.length; idx++){\r\n                if(tmpEndTran[idx].traNo==tmpTran[0].traNo){\r\n                    return true;\r\n                }\r\n            }\r\n            return false;\r\n        }\r\n    }\r\n}\r\n",
  "sourcePath": "C:/Users/Swiss/Desktop/test/contracts/Test_FullData.sol",
  "compiler": {
    "name": "solc",
    "version": "0.5.0+commit.1d4f565a.Emscripten.clang"
  },
  "schemaVersion": "3.0.0",
  "updatedAt": "2019-01-22T14:51:25.118Z",
  "devdoc": {
    "methods": {}
  },
  "userdoc": {
    "methods": {}
  }
}