{
  "contractName": "Test_New_version",
  "abi": [
    {
      "constant": true,
      "inputs": [
        {
          "name": "",
          "type": "address"
        },
        {
          "name": "",
          "type": "uint256"
        }
      ],
      "name": "allDocument",
      "outputs": [
        {
          "name": "id",
          "type": "address"
        },
        {
          "name": "docNo",
          "type": "uint256"
        },
        {
          "name": "location",
          "type": "string"
        }
      ],
      "payable": false,
      "stateMutability": "view",
      "type": "function"
    },
    {
      "constant": true,
      "inputs": [
        {
          "name": "",
          "type": "uint256"
        },
        {
          "name": "",
          "type": "uint256"
        }
      ],
      "name": "allList",
      "outputs": [
        {
          "name": "docNo",
          "type": "uint256"
        },
        {
          "name": "traNo",
          "type": "uint256"
        },
        {
          "name": "detail",
          "type": "string"
        }
      ],
      "payable": false,
      "stateMutability": "view",
      "type": "function"
    },
    {
      "constant": true,
      "inputs": [
        {
          "name": "",
          "type": "uint256"
        }
      ],
      "name": "allEndTransaction",
      "outputs": [
        {
          "name": "traNo",
          "type": "uint256"
        },
        {
          "name": "status",
          "type": "bool"
        }
      ],
      "payable": false,
      "stateMutability": "view",
      "type": "function"
    },
    {
      "inputs": [],
      "payable": false,
      "stateMutability": "nonpayable",
      "type": "constructor"
    },
    {
      "anonymous": false,
      "inputs": [
        {
          "indexed": false,
          "name": "doc",
          "type": "string"
        }
      ],
      "name": "print_document",
      "type": "event"
    },
    {
      "anonymous": false,
      "inputs": [
        {
          "indexed": false,
          "name": "number",
          "type": "uint256[]"
        }
      ],
      "name": "print_array",
      "type": "event"
    },
    {
      "constant": false,
      "inputs": [
        {
          "name": "_id",
          "type": "address"
        },
        {
          "name": "_docNo",
          "type": "uint256"
        },
        {
          "name": "_location",
          "type": "string"
        }
      ],
      "name": "sendDocument",
      "outputs": [],
      "payable": false,
      "stateMutability": "nonpayable",
      "type": "function"
    },
    {
      "constant": false,
      "inputs": [
        {
          "name": "_docNo",
          "type": "uint256"
        },
        {
          "name": "_traNo",
          "type": "uint256"
        },
        {
          "name": "_datail",
          "type": "string"
        }
      ],
      "name": "saveTransaction",
      "outputs": [],
      "payable": false,
      "stateMutability": "nonpayable",
      "type": "function"
    },
    {
      "constant": false,
      "inputs": [
        {
          "name": "_traNo",
          "type": "uint256"
        }
      ],
      "name": "endTransaction",
      "outputs": [],
      "payable": false,
      "stateMutability": "nonpayable",
      "type": "function"
    },
    {
      "constant": false,
      "inputs": [
        {
          "name": "_docNo",
          "type": "uint256"
        }
      ],
      "name": "getDocument",
      "outputs": [],
      "payable": false,
      "stateMutability": "nonpayable",
      "type": "function"
    },
    {
      "constant": false,
      "inputs": [
        {
          "name": "_docNo",
          "type": "uint256"
        }
      ],
      "name": "getTransaction",
      "outputs": [],
      "payable": false,
      "stateMutability": "nonpayable",
      "type": "function"
    }
  ],
  "bytecode": "0x608060405234801561001057600080fd5b50336000806101000a81548173ffffffffffffffffffffffffffffffffffffffff021916908373ffffffffffffffffffffffffffffffffffffffff16021790555061111b806100606000396000f3fe60806040526004361061008e576000357c0100000000000000000000000000000000000000000000000000000000900463ffffffff16806324281a961461009357806333ea3dc8146100ce5780633f9b250a1461010957806350d53846146101445780639366a13e14610252578063a9685f5c1461031e578063ad407de714610410578063fd71af361461046a575b600080fd5b34801561009f57600080fd5b506100cc600480360360208110156100b657600080fd5b8101908080359060200190929190505050610546565b005b3480156100da57600080fd5b50610107600480360360208110156100f157600080fd5b81019080803590602001909291905050506105ad565b005b34801561011557600080fd5b506101426004803603602081101561012c57600080fd5b81019080803590602001909291905050506107a4565b005b34801561015057600080fd5b5061019d6004803603604081101561016757600080fd5b81019080803573ffffffffffffffffffffffffffffffffffffffff16906020019092919080359060200190929190505050610a43565b604051808473ffffffffffffffffffffffffffffffffffffffff1673ffffffffffffffffffffffffffffffffffffffff16815260200183815260200180602001828103825283818151815260200191508051906020019080838360005b838110156102155780820151818401526020810190506101fa565b50505050905090810190601f1680156102425780820380516001836020036101000a031916815260200191505b5094505050505060405180910390f35b34801561025e57600080fd5b506102956004803603604081101561027557600080fd5b810190808035906020019092919080359060200190929190505050610b41565b6040518084815260200183815260200180602001828103825283818151815260200191508051906020019080838360005b838110156102e15780820151818401526020810190506102c6565b50505050905090810190601f16801561030e5780820380516001836020036101000a031916815260200191505b5094505050505060405180910390f35b34801561032a57600080fd5b5061040e6004803603606081101561034157600080fd5b81019080803573ffffffffffffffffffffffffffffffffffffffff169060200190929190803590602001909291908035906020019064010000000081111561038857600080fd5b82018360208201111561039a57600080fd5b803590602001918460018302840111640100000000831117156103bc57600080fd5b91908080601f016020809104026020016040519081016040528093929190818152602001838380828437600081840152601f19601f820116905080830192505050505050509192919290505050610c1f565b005b34801561041c57600080fd5b506104496004803603602081101561043357600080fd5b8101908080359060200190929190505050610d3d565b60405180838152602001821515151581526020019250505060405180910390f35b34801561047657600080fd5b506105446004803603606081101561048d57600080fd5b810190808035906020019092919080359060200190929190803590602001906401000000008111156104be57600080fd5b8201836020820111156104d057600080fd5b803590602001918460018302840111640100000000831117156104f257600080fd5b91908080601f016020809104026020016040519081016040528093929190818152602001838380828437600081840152601f19601f820116905080830192505050505050509192919290505050610d6e565b005b61054e610fd4565b604080519081016040528083815260200160011515815250905080600360008481526020019081526020016000206000820151816000015560208201518160010160006101000a81548160ff0219169083151502179055509050505050565b60608060026000848152602001908152602001600020805480602002602001604051908101604052809291908181526020016000905b828210156106cc5783829060005260206000209060030201606060405190810160405290816000820154815260200160018201548152602001600282018054600181600116156101000203166002900480601f0160208091040260200160405190810160405280929190818152602001828054600181600116156101000203166002900480156106b45780601f10610689576101008083540402835291602001916106b4565b820191906000526020600020905b81548152906001019060200180831161069757829003601f168201915b505050505081525050815260200190600101906105e3565b50505050905060008090505b81518110156107265781818151811015156106ef57fe5b9060200190602002015160200151838281518110151561070b57fe5b906020019060200201818152505080806001019150506106d8565b507f407898a36f0f5f3560642bd633c65ea782300f88cc56674baeb1324b7ab286d3826040518080602001828103825283818151815260200191508051906020019060200280838360005b8381101561078c578082015181840152602081019050610771565b505050509050019250505060405180910390a1505050565b6060600160003373ffffffffffffffffffffffffffffffffffffffff1673ffffffffffffffffffffffffffffffffffffffff168152602001908152602001600020805480602002602001604051908101604052809291908181526020016000905b8282101561093a5783829060005260206000209060030201606060405190810160405290816000820160009054906101000a900473ffffffffffffffffffffffffffffffffffffffff1673ffffffffffffffffffffffffffffffffffffffff1673ffffffffffffffffffffffffffffffffffffffff16815260200160018201548152602001600282018054600181600116156101000203166002900480601f0160208091040260200160405190810160405280929190818152602001828054600181600116156101000203166002900480156109225780601f106108f757610100808354040283529160200191610922565b820191906000526020600020905b81548152906001019060200180831161090557829003601f168201915b50505050508152505081526020019060010190610805565b50505050905060008090505b8151811015610a3d5782828281518110151561095e57fe5b90602001906020020151602001511415610a30577f7e59a5d1d125e2ef3527e0f7248ec5a7c63f9fec50e687336e98e667e99d5bf182828151811015156109a157fe5b90602001906020020151604001516040518080602001828103825283818151815260200191508051906020019080838360005b838110156109ef5780820151818401526020810190506109d4565b50505050905090810190601f168015610a1c5780820380516001836020036101000a031916815260200191505b509250505060405180910390a15050610a40565b8080600101915050610946565b50505b50565b600160205281600052604060002081815481101515610a5e57fe5b9060005260206000209060030201600091509150508060000160009054906101000a900473ffffffffffffffffffffffffffffffffffffffff1690806001015490806002018054600181600116156101000203166002900480601f016020809104026020016040519081016040528092919081815260200182805460018160011615610100020316600290048015610b375780601f10610b0c57610100808354040283529160200191610b37565b820191906000526020600020905b815481529060010190602001808311610b1a57829003601f168201915b5050505050905083565b600260205281600052604060002081815481101515610b5c57fe5b906000526020600020906003020160009150915050806000015490806001015490806002018054600181600116156101000203166002900480601f016020809104026020016040519081016040528092919081815260200182805460018160011615610100020316600290048015610c155780601f10610bea57610100808354040283529160200191610c15565b820191906000526020600020905b815481529060010190602001808311610bf857829003601f168201915b5050505050905083565b610c27610ff0565b6060604051908101604052808573ffffffffffffffffffffffffffffffffffffffff168152602001848152602001838152509050600160008573ffffffffffffffffffffffffffffffffffffffff1673ffffffffffffffffffffffffffffffffffffffff168152602001908152602001600020819080600181540180825580915050906001820390600052602060002090600302016000909192909190915060008201518160000160006101000a81548173ffffffffffffffffffffffffffffffffffffffff021916908373ffffffffffffffffffffffffffffffffffffffff160217905550602082015181600101556040820151816002019080519060200190610d33929190611028565b5050505050505050565b60036020528060005260406000206000915090508060000154908060010160009054906101000a900460ff16905082565b610d7783610e1c565b15610e1757610d846110a8565b60606040519081016040528085815260200184815260200183815250905060026000858152602001908152602001600020819080600181540180825580915050906001820390600052602060002090600302016000909192909190915060008201518160000155602082015181600101556040820151816002019080519060200190610e11929190611028565b50505050505b505050565b6000606060026000848152602001908152602001600020805480602002602001604051908101604052809291908181526020016000905b82821015610f3c5783829060005260206000209060030201606060405190810160405290816000820154815260200160018201548152602001600282018054600181600116156101000203166002900480601f016020809104026020016040519081016040528092919081815260200182805460018160011615610100020316600290048015610f245780601f10610ef957610100808354040283529160200191610f24565b820191906000526020600020905b815481529060010190602001808311610f0757829003601f168201915b50505050508152505081526020019060010190610e53565b505050509050600081511415610f56576001915050610fcf565b60008090505b8151811015610fc85760011515600360008484815181101515610f7b57fe5b9060200190602002015160200151815260200190815260200160002060010160009054906101000a900460ff1615151415610fbb57600192505050610fcf565b8080600101915050610f5c565b5060009150505b919050565b6040805190810160405280600081526020016000151581525090565b606060405190810160405280600073ffffffffffffffffffffffffffffffffffffffff16815260200160008152602001606081525090565b828054600181600116156101000203166002900490600052602060002090601f016020900481019282601f1061106957805160ff1916838001178555611097565b82800160010185558215611097579182015b8281111561109657825182559160200191906001019061107b565b5b5090506110a491906110ca565b5090565b6060604051908101604052806000815260200160008152602001606081525090565b6110ec91905b808211156110e85760008160009055506001016110d0565b5090565b9056fea165627a7a7230582021a325c13a233e96a776ae994440b67149987cb78d8f2057c7cfd319be8a13820029",
  "source": "pragma solidity >=0.4.0 <0.6.0;\r\n\r\ncontract Test_New_version {\r\n\r\n    address user;\r\n\r\n    event print_document(string doc);\r\n    event print_array(uint[] number);\r\n    //โครงสร้างโฉนดที่ดิน(หน้าแรก)\r\n    struct document {\r\n        address id;\r\n        uint docNo;\r\n        string location;\r\n    }\r\n    mapping(address => document[]) public allDocument;\r\n    //โครงสร้างโฉนดที่ดิน(หน้าหลัง)\r\n    struct transaction {\r\n        uint docNo;\r\n        uint traNo;\r\n        //..other data\r\n        string detail;\r\n    }\r\n    mapping(uint => transaction[]) public allList;\r\n    //โครงสร้างโฉนดที่ดิน(หน้าหลัง)\r\n    struct endtransaction {\r\n        uint traNo;\r\n        //..other data\r\n        bool status;\r\n    }\r\n    mapping(uint => endtransaction) public allEndTransaction;\r\n\r\n    constructor() public {\r\n        user = msg.sender;\r\n    }\r\n\r\n    //ลงทะเบียนโฉนดที่ดินให้กับผู้ใช้\r\n    function sendDocument(address _id,uint _docNo, string memory _location) public {\r\n        //authen by admin...\r\n        //require\r\n        document memory newDocument = document(_id, _docNo, _location);\r\n        allDocument[_id].push(newDocument);\r\n    }\r\n\r\n    // //ลงทะเบียนโฉนดที่ดินให้กับผู้ใช้\r\n    // function sendDocument(address id, uint section, uint numberOfsection, uint surveyPage, string memory district,  uint documentNumber, uint book, uint bookPage, string  memory county, string memory province, string memory fristname,  string memory lastname, string memory nationality, string memory ownerAddress, uint size) public {\r\n    //     //authen by admin...\r\n    //     //require\r\n    //     document memory newDocument = document(id, section, numberOfsection, surveyPage, district, documentNumber, book, bookPage, county, province, fristname, lastname, nationality, ownerAddress, size);\r\n    //     allDocument[_id].push(newDocument);\r\n    // }\r\n\r\n    //บันทึกธุรกรรมของโฉนดที่ดิน\r\n    function saveTransaction(uint _docNo,uint _traNo,string memory _datail) public {\r\n        //require\r\n        //ตรวจสอบความถูกต้อง\r\n        if(checkContract(_docNo)){\r\n            transaction memory newTransaction = transaction(_docNo, _traNo, _datail);\r\n            allList[_docNo].push(newTransaction);\r\n        }\r\n    }\r\n    //ยกเลิกพันธะ\r\n    function endTransaction(uint  _traNo) public {\r\n        //require\r\n        //ตรวจสอบความถูกต้อง\r\n        endtransaction memory newEndTransaction =  endtransaction(_traNo, true);\r\n        allEndTransaction[_traNo] = newEndTransaction;\r\n    }\r\n    //แสดงรายละเอียดของโฉนด\r\n    function getDocument(uint _docNo) public {\r\n        //authen by user...\r\n        //require\r\n        document[] memory tmpDoc = allDocument[msg.sender];\r\n        for(uint idx = 0; idx < tmpDoc.length; idx++){\r\n            if(tmpDoc[idx].docNo==_docNo){\r\n                emit print_document(tmpDoc[idx].location);\r\n                return;\r\n            }\r\n        }\r\n    }\r\n    //แสดงธุรกรรมของโฉนด\r\n    function getTransaction(uint _docNo) public {\r\n        //authen by user...\r\n        //require\r\n        uint[] memory output;\r\n        transaction[] memory tmpTran = allList[_docNo];\r\n        for(uint idx = 0; idx < tmpTran.length; idx++){\r\n            output[idx] = tmpTran[idx].traNo; //ออกแบบการส่งออกไปภายนอก\r\n        }\r\n        emit print_array(output);\r\n        return;\r\n    }\r\n\r\n    //ตรวจสอบว่าไม่ติดพันธะ\r\n    function checkContract(uint _docNo) private view returns(bool) {\r\n        //authen by user...\r\n        //require\r\n        transaction[] memory tmpTran = allList[_docNo];\r\n        if(tmpTran.length==0){\r\n            return true;\r\n        } else {\r\n            for(uint idx = 0; idx < tmpTran.length; idx++){\r\n                if(allEndTransaction[tmpTran[idx].traNo].status==true){\r\n                    return true;\r\n                }\r\n            }\r\n            return false;\r\n        }\r\n    }\r\n}\r\n",
  "sourcePath": "C:/Users/Swiss/Desktop/test/contracts/Test_New_version.sol",
  "compiler": {
    "name": "solc",
    "version": "0.5.0+commit.1d4f565a.Emscripten.clang"
  },
  "schemaVersion": "3.0.0",
  "updatedAt": "2019-01-16T04:03:48.080Z",
  "devdoc": {
    "methods": {}
  },
  "userdoc": {
    "methods": {}
  }
}