{
  "contractName": "Test_FullData",
  "abi": [
    {
      "constant": true,
      "inputs": [
        {
          "name": "",
          "type": "address"
        },
        {
          "name": "",
          "type": "uint256"
        }
      ],
      "name": "allDocument",
      "outputs": [
        {
          "name": "id",
          "type": "address"
        },
        {
          "name": "section",
          "type": "uint256"
        },
        {
          "name": "numberOfsection",
          "type": "uint256"
        },
        {
          "name": "district",
          "type": "string"
        },
        {
          "name": "docNo",
          "type": "uint256"
        },
        {
          "name": "county",
          "type": "string"
        },
        {
          "name": "province",
          "type": "string"
        },
        {
          "name": "name",
          "type": "string"
        },
        {
          "name": "nationality",
          "type": "string"
        },
        {
          "name": "size",
          "type": "uint256"
        }
      ],
      "payable": false,
      "stateMutability": "view",
      "type": "function",
      "signature": "0x50d53846"
    },
    {
      "constant": true,
      "inputs": [
        {
          "name": "",
          "type": "uint256"
        },
        {
          "name": "",
          "type": "uint256"
        }
      ],
      "name": "allList",
      "outputs": [
        {
          "name": "traNo",
          "type": "uint256"
        },
        {
          "name": "docNo",
          "type": "uint256"
        },
        {
          "name": "mortgage",
          "type": "address"
        },
        {
          "name": "mortgagee",
          "type": "address"
        },
        {
          "name": "detail",
          "type": "string"
        }
      ],
      "payable": false,
      "stateMutability": "view",
      "type": "function",
      "signature": "0x9366a13e"
    },
    {
      "constant": true,
      "inputs": [
        {
          "name": "",
          "type": "uint256"
        }
      ],
      "name": "allEndTransaction",
      "outputs": [
        {
          "name": "traNo",
          "type": "uint256"
        },
        {
          "name": "status",
          "type": "bool"
        }
      ],
      "payable": false,
      "stateMutability": "view",
      "type": "function",
      "signature": "0xad407de7"
    },
    {
      "anonymous": false,
      "inputs": [
        {
          "indexed": false,
          "name": "str",
          "type": "string"
        }
      ],
      "name": "print_string",
      "type": "event",
      "signature": "0xa5014519207066148cceb1209c0da9b5bc063b5c80fb25da53261714be79574b"
    },
    {
      "anonymous": false,
      "inputs": [
        {
          "indexed": false,
          "name": "size",
          "type": "uint256"
        }
      ],
      "name": "print_uint",
      "type": "event",
      "signature": "0x692c952151b417a9943d2d683df661e7680bee63e10c12a77b4681793f8c3435"
    },
    {
      "anonymous": false,
      "inputs": [
        {
          "indexed": false,
          "name": "section",
          "type": "uint256"
        },
        {
          "indexed": false,
          "name": "numberOfsection",
          "type": "uint256"
        },
        {
          "indexed": false,
          "name": "district",
          "type": "string"
        },
        {
          "indexed": false,
          "name": "docNo",
          "type": "uint256"
        },
        {
          "indexed": false,
          "name": "county",
          "type": "string"
        },
        {
          "indexed": false,
          "name": "province",
          "type": "string"
        },
        {
          "indexed": false,
          "name": "name",
          "type": "string"
        },
        {
          "indexed": false,
          "name": "nationality",
          "type": "string"
        },
        {
          "indexed": false,
          "name": "size",
          "type": "uint256"
        }
      ],
      "name": "print_document",
      "type": "event",
      "signature": "0x10a19bf8962a5ef50d20dc3f6b90c40a666b880a9215fc321bde36161b586116"
    },
    {
      "constant": false,
      "inputs": [
        {
          "name": "id",
          "type": "address"
        },
        {
          "name": "section",
          "type": "uint256"
        },
        {
          "name": "numberOfsection",
          "type": "uint256"
        },
        {
          "name": "district",
          "type": "string"
        },
        {
          "name": "docNo",
          "type": "uint256"
        },
        {
          "name": "county",
          "type": "string"
        },
        {
          "name": "province",
          "type": "string"
        },
        {
          "name": "name",
          "type": "string"
        },
        {
          "name": "nationality",
          "type": "string"
        },
        {
          "name": "size",
          "type": "uint256"
        }
      ],
      "name": "sendDocument",
      "outputs": [],
      "payable": false,
      "stateMutability": "nonpayable",
      "type": "function",
      "signature": "0x93ebf88b"
    },
    {
      "constant": false,
      "inputs": [
        {
          "name": "_traNo",
          "type": "uint256"
        },
        {
          "name": "_docNo",
          "type": "uint256"
        },
        {
          "name": "_mortgage",
          "type": "address"
        },
        {
          "name": "_mortgagee",
          "type": "address"
        },
        {
          "name": "_datail",
          "type": "string"
        }
      ],
      "name": "saveTransaction",
      "outputs": [],
      "payable": false,
      "stateMutability": "nonpayable",
      "type": "function",
      "signature": "0xc0332eec"
    },
    {
      "constant": false,
      "inputs": [
        {
          "name": "_traNo",
          "type": "uint256"
        }
      ],
      "name": "endTransaction",
      "outputs": [],
      "payable": false,
      "stateMutability": "nonpayable",
      "type": "function",
      "signature": "0x24281a96"
    },
    {
      "constant": false,
      "inputs": [
        {
          "name": "_docNo",
          "type": "uint256"
        }
      ],
      "name": "getDocument",
      "outputs": [],
      "payable": false,
      "stateMutability": "nonpayable",
      "type": "function",
      "signature": "0x3f9b250a"
    },
    {
      "constant": false,
      "inputs": [
        {
          "name": "_docNo",
          "type": "uint256"
        }
      ],
      "name": "getLastTransaction",
      "outputs": [],
      "payable": false,
      "stateMutability": "nonpayable",
      "type": "function",
      "signature": "0x45838c42"
    },
    {
      "constant": false,
      "inputs": [
        {
          "name": "_docNo",
          "type": "uint256"
        },
        {
          "name": "_traNo",
          "type": "uint256"
        }
      ],
      "name": "getTransaction",
      "outputs": [],
      "payable": false,
      "stateMutability": "nonpayable",
      "type": "function",
      "signature": "0x7303f6ce"
    }
  ],
  "bytecode": "0x608060405234801561001057600080fd5b5061224e806100206000396000f3fe608060405260043610610099576000357c0100000000000000000000000000000000000000000000000000000000900463ffffffff16806324281a961461009e5780633f9b250a146100d957806345838c421461011457806350d538461461014f5780637303f6ce146104225780639366a13e1461046757806393ebf88b14610599578063ad407de714610906578063c0332eec14610960575b600080fd5b3480156100aa57600080fd5b506100d7600480360360208110156100c157600080fd5b8101908080359060200190929190505050610a7c565b005b3480156100e557600080fd5b50610112600480360360208110156100fc57600080fd5b8101908080359060200190929190505050610ae3565b005b34801561012057600080fd5b5061014d6004803603602081101561013757600080fd5b81019080803590602001909291905050506112d6565b005b34801561015b57600080fd5b506101a86004803603604081101561017257600080fd5b81019080803573ffffffffffffffffffffffffffffffffffffffff16906020019092919080359060200190929190505050611562565b604051808b73ffffffffffffffffffffffffffffffffffffffff1673ffffffffffffffffffffffffffffffffffffffff1681526020018a8152602001898152602001806020018881526020018060200180602001806020018060200187815260200186810386528d818151815260200191508051906020019080838360005b83811015610242578082015181840152602081019050610227565b50505050905090810190601f16801561026f5780820380516001836020036101000a031916815260200191505b5086810385528b818151815260200191508051906020019080838360005b838110156102a857808201518184015260208101905061028d565b50505050905090810190601f1680156102d55780820380516001836020036101000a031916815260200191505b5086810384528a818151815260200191508051906020019080838360005b8381101561030e5780820151818401526020810190506102f3565b50505050905090810190601f16801561033b5780820380516001836020036101000a031916815260200191505b50868103835289818151815260200191508051906020019080838360005b83811015610374578082015181840152602081019050610359565b50505050905090810190601f1680156103a15780820380516001836020036101000a031916815260200191505b50868103825288818151815260200191508051906020019080838360005b838110156103da5780820151818401526020810190506103bf565b50505050905090810190601f1680156104075780820380516001836020036101000a031916815260200191505b509f5050505050505050505050505050505060405180910390f35b34801561042e57600080fd5b506104656004803603604081101561044557600080fd5b8101908080359060200190929190803590602001909291905050506118ea565b005b34801561047357600080fd5b506104aa6004803603604081101561048a57600080fd5b810190808035906020019092919080359060200190929190505050611bf6565b604051808681526020018581526020018473ffffffffffffffffffffffffffffffffffffffff1673ffffffffffffffffffffffffffffffffffffffff1681526020018373ffffffffffffffffffffffffffffffffffffffff1673ffffffffffffffffffffffffffffffffffffffff16815260200180602001828103825283818151815260200191508051906020019080838360005b8381101561055a57808201518184015260208101905061053f565b50505050905090810190601f1680156105875780820380516001836020036101000a031916815260200191505b50965050505050505060405180910390f35b3480156105a557600080fd5b5061090460048036036101408110156105bd57600080fd5b81019080803573ffffffffffffffffffffffffffffffffffffffff16906020019092919080359060200190929190803590602001909291908035906020019064010000000081111561060e57600080fd5b82018360208201111561062057600080fd5b8035906020019184600183028401116401000000008311171561064257600080fd5b91908080601f016020809104026020016040519081016040528093929190818152602001838380828437600081840152601f19601f82011690508083019250505050505050919291929080359060200190929190803590602001906401000000008111156106af57600080fd5b8201836020820111156106c157600080fd5b803590602001918460018302840111640100000000831117156106e357600080fd5b91908080601f016020809104026020016040519081016040528093929190818152602001838380828437600081840152601f19601f8201169050808301925050505050505091929192908035906020019064010000000081111561074657600080fd5b82018360208201111561075857600080fd5b8035906020019184600183028401116401000000008311171561077a57600080fd5b91908080601f016020809104026020016040519081016040528093929190818152602001838380828437600081840152601f19601f820116905080830192505050505050509192919290803590602001906401000000008111156107dd57600080fd5b8201836020820111156107ef57600080fd5b8035906020019184600183028401116401000000008311171561081157600080fd5b91908080601f016020809104026020016040519081016040528093929190818152602001838380828437600081840152601f19601f8201169050808301925050505050505091929192908035906020019064010000000081111561087457600080fd5b82018360208201111561088657600080fd5b803590602001918460018302840111640100000000831117156108a857600080fd5b91908080601f016020809104026020016040519081016040528093929190818152602001838380828437600081840152601f19601f82011690508083019250505050505050919291929080359060200190929190505050611d20565b005b34801561091257600080fd5b5061093f6004803603602081101561092957600080fd5b8101908080359060200190929190505050611f03565b60405180838152602001821515151581526020019250505060405180910390f35b34801561096c57600080fd5b50610a7a600480360360a081101561098357600080fd5b810190808035906020019092919080359060200190929190803573ffffffffffffffffffffffffffffffffffffffff169060200190929190803573ffffffffffffffffffffffffffffffffffffffff169060200190929190803590602001906401000000008111156109f457600080fd5b820183602082011115610a0657600080fd5b80359060200191846001830284011164010000000083111715610a2857600080fd5b91908080601f016020809104026020016040519081016040528093929190818152602001838380828437600081840152601f19601f820116905080830192505050505050509192919290505050611f34565b005b610a8461209b565b604080519081016040528083815260200160011515815250905080600260008481526020019081526020016000206000820151816000015560208201518160010160006101000a81548160ff0219169083151502179055509050505050565b60606000803373ffffffffffffffffffffffffffffffffffffffff1673ffffffffffffffffffffffffffffffffffffffff168152602001908152602001600020805480602002602001604051908101604052809291908181526020016000905b82821015610f1f57838290600052602060002090600a020161014060405190810160405290816000820160009054906101000a900473ffffffffffffffffffffffffffffffffffffffff1673ffffffffffffffffffffffffffffffffffffffff1673ffffffffffffffffffffffffffffffffffffffff1681526020016001820154815260200160028201548152602001600382018054600181600116156101000203166002900480601f016020809104026020016040519081016040528092919081815260200182805460018160011615610100020316600290048015610c6b5780601f10610c4057610100808354040283529160200191610c6b565b820191906000526020600020905b815481529060010190602001808311610c4e57829003601f168201915b5050505050815260200160048201548152602001600582018054600181600116156101000203166002900480601f016020809104026020016040519081016040528092919081815260200182805460018160011615610100020316600290048015610d175780601f10610cec57610100808354040283529160200191610d17565b820191906000526020600020905b815481529060010190602001808311610cfa57829003601f168201915b50505050508152602001600682018054600181600116156101000203166002900480601f016020809104026020016040519081016040528092919081815260200182805460018160011615610100020316600290048015610db95780601f10610d8e57610100808354040283529160200191610db9565b820191906000526020600020905b815481529060010190602001808311610d9c57829003601f168201915b50505050508152602001600782018054600181600116156101000203166002900480601f016020809104026020016040519081016040528092919081815260200182805460018160011615610100020316600290048015610e5b5780601f10610e3057610100808354040283529160200191610e5b565b820191906000526020600020905b815481529060010190602001808311610e3e57829003601f168201915b50505050508152602001600882018054600181600116156101000203166002900480601f016020809104026020016040519081016040528092919081815260200182805460018160011615610100020316600290048015610efd5780601f10610ed257610100808354040283529160200191610efd565b820191906000526020600020905b815481529060010190602001808311610ee057829003601f168201915b5050505050815260200160098201548152505081526020019060010190610b43565b50505050905060008090505b81518110156112d057828282815181101515610f4357fe5b906020019060200201516080015114156112c3577f10a19bf8962a5ef50d20dc3f6b90c40a666b880a9215fc321bde36161b5861168282815181101515610f8657fe5b90602001906020020151602001518383815181101515610fa257fe5b90602001906020020151604001518484815181101515610fbe57fe5b90602001906020020151606001518585815181101515610fda57fe5b90602001906020020151608001518686815181101515610ff657fe5b9060200190602002015160a00151878781518110151561101257fe5b9060200190602002015160c00151888881518110151561102e57fe5b9060200190602002015160e00151898981518110151561104a57fe5b9060200190602002015161010001518a8a81518110151561106757fe5b906020019060200201516101200151604051808a8152602001898152602001806020018881526020018060200180602001806020018060200187815260200186810386528d818151815260200191508051906020019080838360005b838110156110de5780820151818401526020810190506110c3565b50505050905090810190601f16801561110b5780820380516001836020036101000a031916815260200191505b5086810385528b818151815260200191508051906020019080838360005b83811015611144578082015181840152602081019050611129565b50505050905090810190601f1680156111715780820380516001836020036101000a031916815260200191505b5086810384528a818151815260200191508051906020019080838360005b838110156111aa57808201518184015260208101905061118f565b50505050905090810190601f1680156111d75780820380516001836020036101000a031916815260200191505b50868103835289818151815260200191508051906020019080838360005b838110156112105780820151818401526020810190506111f5565b50505050905090810190601f16801561123d5780820380516001836020036101000a031916815260200191505b50868103825288818151815260200191508051906020019080838360005b8381101561127657808201518184015260208101905061125b565b50505050905090810190601f1680156112a35780820380516001836020036101000a031916815260200191505b509e50505050505050505050505050505060405180910390a150506112d3565b8080600101915050610f2b565b50505b50565b606060016000838152602001908152602001600020805480602002602001604051908101604052809291908181526020016000905b828210156114a0578382906000526020600020906005020160a0604051908101604052908160008201548152602001600182015481526020016002820160009054906101000a900473ffffffffffffffffffffffffffffffffffffffff1673ffffffffffffffffffffffffffffffffffffffff1673ffffffffffffffffffffffffffffffffffffffff1681526020016003820160009054906101000a900473ffffffffffffffffffffffffffffffffffffffff1673ffffffffffffffffffffffffffffffffffffffff1673ffffffffffffffffffffffffffffffffffffffff168152602001600482018054600181600116156101000203166002900480601f0160208091040260200160405190810160405280929190818152602001828054600181600116156101000203166002900480156114885780601f1061145d57610100808354040283529160200191611488565b820191906000526020600020905b81548152906001019060200180831161146b57829003601f168201915b5050505050815250508152602001906001019061130b565b5050505090507fa5014519207066148cceb1209c0da9b5bc063b5c80fb25da53261714be79574b8160008151811015156114d657fe5b90602001906020020151608001516040518080602001828103825283818151815260200191508051906020019080838360005b83811015611524578082015181840152602081019050611509565b50505050905090810190601f1680156115515780820380516001836020036101000a031916815260200191505b509250505060405180910390a15050565b60006020528160005260406000208181548110151561157d57fe5b90600052602060002090600a0201600091509150508060000160009054906101000a900473ffffffffffffffffffffffffffffffffffffffff1690806001015490806002015490806003018054600181600116156101000203166002900480601f01602080910402602001604051908101604052809291908181526020018280546001816001161561010002031660029004801561165c5780601f106116315761010080835404028352916020019161165c565b820191906000526020600020905b81548152906001019060200180831161163f57829003601f168201915b505050505090806004015490806005018054600181600116156101000203166002900480601f0160208091040260200160405190810160405280929190818152602001828054600181600116156101000203166002900480156117005780601f106116d557610100808354040283529160200191611700565b820191906000526020600020905b8154815290600101906020018083116116e357829003601f168201915b505050505090806006018054600181600116156101000203166002900480601f01602080910402602001604051908101604052809291908181526020018280546001816001161561010002031660029004801561179e5780601f106117735761010080835404028352916020019161179e565b820191906000526020600020905b81548152906001019060200180831161178157829003601f168201915b505050505090806007018054600181600116156101000203166002900480601f01602080910402602001604051908101604052809291908181526020018280546001816001161561010002031660029004801561183c5780601f106118115761010080835404028352916020019161183c565b820191906000526020600020905b81548152906001019060200180831161181f57829003601f168201915b505050505090806008018054600181600116156101000203166002900480601f0160208091040260200160405190810160405280929190818152602001828054600181600116156101000203166002900480156118da5780601f106118af576101008083540402835291602001916118da565b820191906000526020600020905b8154815290600101906020018083116118bd57829003601f168201915b505050505090806009015490508a565b606060016000848152602001908152602001600020805480602002602001604051908101604052809291908181526020016000905b82821015611ab4578382906000526020600020906005020160a0604051908101604052908160008201548152602001600182015481526020016002820160009054906101000a900473ffffffffffffffffffffffffffffffffffffffff1673ffffffffffffffffffffffffffffffffffffffff1673ffffffffffffffffffffffffffffffffffffffff1681526020016003820160009054906101000a900473ffffffffffffffffffffffffffffffffffffffff1673ffffffffffffffffffffffffffffffffffffffff1673ffffffffffffffffffffffffffffffffffffffff168152602001600482018054600181600116156101000203166002900480601f016020809104026020016040519081016040528092919081815260200182805460018160011615610100020316600290048015611a9c5780601f10611a7157610100808354040283529160200191611a9c565b820191906000526020600020905b815481529060010190602001808311611a7f57829003601f168201915b5050505050815250508152602001906001019061191f565b50505050905060008090505b8151811015611bb757828282815181101515611ad857fe5b90602001906020020151600001511415611baa577fa5014519207066148cceb1209c0da9b5bc063b5c80fb25da53261714be79574b8282815181101515611b1b57fe5b90602001906020020151608001516040518080602001828103825283818151815260200191508051906020019080838360005b83811015611b69578082015181840152602081019050611b4e565b50505050905090810190601f168015611b965780820380516001836020036101000a031916815260200191505b509250505060405180910390a15050611bf2565b8080600101915050611ac0565b507f692c952151b417a9943d2d683df661e7680bee63e10c12a77b4681793f8c343581516040518082815260200191505060405180910390a1505b5050565b600160205281600052604060002081815481101515611c1157fe5b9060005260206000209060050201600091509150508060000154908060010154908060020160009054906101000a900473ffffffffffffffffffffffffffffffffffffffff16908060030160009054906101000a900473ffffffffffffffffffffffffffffffffffffffff1690806004018054600181600116156101000203166002900480601f016020809104026020016040519081016040528092919081815260200182805460018160011615610100020316600290048015611d165780601f10611ceb57610100808354040283529160200191611d16565b820191906000526020600020905b815481529060010190602001808311611cf957829003601f168201915b5050505050905085565b611d286120b7565b610140604051908101604052808c73ffffffffffffffffffffffffffffffffffffffff1681526020018b81526020018a81526020018981526020018881526020018781526020018681526020018581526020018481526020018381525090506000808c73ffffffffffffffffffffffffffffffffffffffff1673ffffffffffffffffffffffffffffffffffffffff168152602001908152602001600020819080600181540180825580915050906001820390600052602060002090600a02016000909192909190915060008201518160000160006101000a81548173ffffffffffffffffffffffffffffffffffffffff021916908373ffffffffffffffffffffffffffffffffffffffff16021790555060208201518160010155604082015181600201556060820151816003019080519060200190611e68929190612121565b506080820151816004015560a0820151816005019080519060200190611e8f929190612121565b5060c0820151816006019080519060200190611eac929190612121565b5060e0820151816007019080519060200190611ec9929190612121565b50610100820151816008019080519060200190611ee7929190612121565b5061012082015181600901555050505050505050505050505050565b60026020528060005260406000206000915090508060000154908060010160009054906101000a900460ff16905082565b611f3c6121a1565b60a0604051908101604052808781526020018681526020018573ffffffffffffffffffffffffffffffffffffffff1681526020018473ffffffffffffffffffffffffffffffffffffffff168152602001838152509050600160008681526020019081526020016000208190806001815401808255809150509060018203906000526020600020906005020160009091929091909150600082015181600001556020820151816001015560408201518160020160006101000a81548173ffffffffffffffffffffffffffffffffffffffff021916908373ffffffffffffffffffffffffffffffffffffffff16021790555060608201518160030160006101000a81548173ffffffffffffffffffffffffffffffffffffffff021916908373ffffffffffffffffffffffffffffffffffffffff160217905550608082015181600401908051906020019061208f929190612121565b50505050505050505050565b6040805190810160405280600081526020016000151581525090565b61014060405190810160405280600073ffffffffffffffffffffffffffffffffffffffff1681526020016000815260200160008152602001606081526020016000815260200160608152602001606081526020016060815260200160608152602001600081525090565b828054600181600116156101000203166002900490600052602060002090601f016020900481019282601f1061216257805160ff1916838001178555612190565b82800160010185558215612190579182015b8281111561218f578251825591602001919060010190612174565b5b50905061219d91906121fd565b5090565b60a0604051908101604052806000815260200160008152602001600073ffffffffffffffffffffffffffffffffffffffff168152602001600073ffffffffffffffffffffffffffffffffffffffff168152602001606081525090565b61221f91905b8082111561221b576000816000905550600101612203565b5090565b9056fea165627a7a72305820bdc38cd482e6d603da03457da7f82257d41d3f925ce9f08450f0d32c90787c730029",
  "source": "pragma solidity >=0.4.0 <0.6.0;\r\n\r\n\r\ncontract Test_FullData {\r\n\r\n    event print_string(string str);\r\n    event print_uint(uint size);\r\n    event print_document(uint section,\r\n        uint numberOfsection,\r\n        string district,\r\n        uint docNo,\r\n        string county,\r\n        string province,\r\n        string name,\r\n        string nationality,\r\n        uint size);\r\n\r\n    //()   key\r\n    struct document {\r\n        address id;\r\n        //1. \r\n        uint section; //\r\n        uint numberOfsection; //\r\n        string district; //\r\n        //2.\r\n        uint docNo; // \r\n        string county; //\r\n        string province; //\r\n        //3.\r\n        string name; //  frisname+lastname\r\n        string nationality; //\r\n        //4.\r\n        uint size;\r\n        //5.>    \r\n    }\r\n    mapping(address => document[]) public allDocument;\r\n    //()\r\n    struct transaction {\r\n        uint traNo;\r\n        //..other data\r\n        uint docNo;\r\n        address mortgage;\r\n        address mortgagee;\r\n        string detail;\r\n    }\r\n    mapping(uint => transaction[]) public allList;\r\n    //()\r\n    struct endtransaction {\r\n        uint traNo;\r\n        //..other data\r\n        bool status;\r\n    }\r\n    mapping(uint => endtransaction) public allEndTransaction;\r\n\r\n    //\r\n    function sendDocument(address id,\r\n    uint section,\r\n    uint numberOfsection,\r\n    string memory district,\r\n    uint docNo,\r\n    string memory county,\r\n    string memory province,\r\n    string memory name,\r\n    string memory nationality,\r\n    uint size) public {\r\n        //authen by admin...\r\n        //require\r\n        document memory newDocument = document(id,\r\n        section,\r\n        numberOfsection,\r\n        district,\r\n        docNo,\r\n        county,\r\n        province,\r\n        name,\r\n        nationality,\r\n        size);\r\n        allDocument[id].push(newDocument);\r\n    }\r\n\r\n    //\r\n    function saveTransaction(uint _traNo,uint _docNo,address _mortgage,address _mortgagee,string memory _datail) public {\r\n        //require\r\n        //\r\n        //if(checkContract(_docNo)){\r\n        transaction memory newTransaction = transaction(_traNo, _docNo,  _mortgage, _mortgagee, _datail);\r\n        allList[_docNo].push(newTransaction);\r\n        //}else{\r\n          //  emit print_string(\"fail\");\r\n        //}\r\n    }\r\n    //\r\n    function endTransaction(uint  _traNo) public {\r\n        //require\r\n        //\r\n        endtransaction memory newEndTransaction =  endtransaction(_traNo, true);\r\n        allEndTransaction[_traNo] = newEndTransaction;\r\n    }\r\n    //\r\n    function getDocument(uint _docNo) public {\r\n        //authen by user...\r\n        //require\r\n        document[] memory tmpDoc = allDocument[msg.sender];\r\n        for(uint idx = 0; idx < tmpDoc.length; idx++){\r\n            if(tmpDoc[idx].docNo==_docNo){\r\n                emit print_document(tmpDoc[idx].section,\r\n                tmpDoc[idx].numberOfsection,\r\n                tmpDoc[idx].district,\r\n                tmpDoc[idx].docNo,\r\n                tmpDoc[idx].county,\r\n                tmpDoc[idx].province,\r\n                tmpDoc[idx].name,\r\n                tmpDoc[idx].nationality,\r\n                tmpDoc[idx].size);\r\n                return;\r\n            }\r\n        }\r\n    }\r\n    //  \r\n    function getLastTransaction(uint _docNo) public {\r\n        //authen by user...\r\n        //require\r\n        transaction[] memory tmpTran = allList[_docNo];\r\n        emit print_string(tmpTran[0].detail);\r\n        return;\r\n    }\r\n\r\n    function getTransaction(uint _docNo, uint _traNo) public {\r\n        //authen by user...\r\n        //require\r\n        transaction[] memory tmpTran = allList[_docNo];\r\n        for(uint idx = 0; idx < tmpTran.length; idx++){\r\n            if(tmpTran[idx].traNo == _traNo){\r\n                emit print_string(tmpTran[idx].detail);\r\n                return;\r\n            }\r\n        }\r\n        emit print_uint(tmpTran.length);\r\n        return;\r\n    }\r\n\r\n    //\r\n    function checkContract(uint _docNo) private view returns(bool) {\r\n        //authen by user...\r\n        //require\r\n        transaction[] memory tmpTran = allList[_docNo];\r\n        if(tmpTran.length==0){\r\n            return true;\r\n        } else {\r\n            for(uint idx = 0; idx < tmpTran.length; idx++){\r\n                if(allEndTransaction[tmpTran[idx].traNo].status==true){\r\n                    return true;\r\n                }\r\n            }\r\n            return false;\r\n        }\r\n    }\r\n}\r\n",
  "sourcePath": "C:/Users/Swiss/Desktop/test/contracts/Test_FullData.sol",
  "compiler": {
    "name": "solc",
    "version": "0.5.0+commit.1d4f565a.Emscripten.clang"
  },
  "schemaVersion": "3.0.0",
  "updatedAt": "2019-01-07T16:10:24.060Z",
  "devdoc": {
    "methods": {}
  },
  "userdoc": {
    "methods": {}
  }
}