{
  "contractName": "Test_FullData",
  "abi": [
    {
      "constant": true,
      "inputs": [
        {
          "name": "",
          "type": "address"
        },
        {
          "name": "",
          "type": "uint256"
        }
      ],
      "name": "allDocument",
      "outputs": [
        {
          "name": "id",
          "type": "address"
        },
        {
          "name": "section",
          "type": "uint256"
        },
        {
          "name": "numberOfsection",
          "type": "uint256"
        },
        {
          "name": "district",
          "type": "string"
        },
        {
          "name": "docNo",
          "type": "uint256"
        },
        {
          "name": "county",
          "type": "string"
        },
        {
          "name": "province",
          "type": "string"
        },
        {
          "name": "name",
          "type": "string"
        },
        {
          "name": "nationality",
          "type": "string"
        },
        {
          "name": "size",
          "type": "uint256"
        }
      ],
      "payable": false,
      "stateMutability": "view",
      "type": "function",
      "signature": "0x50d53846"
    },
    {
      "constant": true,
      "inputs": [
        {
          "name": "",
          "type": "uint256"
        },
        {
          "name": "",
          "type": "uint256"
        }
      ],
      "name": "allList",
      "outputs": [
        {
          "name": "traNo",
          "type": "uint256"
        },
        {
          "name": "docNo",
          "type": "uint256"
        },
        {
          "name": "mortgage",
          "type": "address"
        },
        {
          "name": "mortgagee",
          "type": "address"
        },
        {
          "name": "money",
          "type": "uint256"
        },
        {
          "name": "detail",
          "type": "string"
        }
      ],
      "payable": false,
      "stateMutability": "view",
      "type": "function",
      "signature": "0x9366a13e"
    },
    {
      "constant": true,
      "inputs": [
        {
          "name": "",
          "type": "uint256"
        }
      ],
      "name": "allEndTransaction",
      "outputs": [
        {
          "name": "traNo",
          "type": "uint256"
        },
        {
          "name": "status",
          "type": "bool"
        }
      ],
      "payable": false,
      "stateMutability": "view",
      "type": "function",
      "signature": "0xad407de7"
    },
    {
      "anonymous": false,
      "inputs": [
        {
          "indexed": false,
          "name": "str",
          "type": "string"
        }
      ],
      "name": "print_string",
      "type": "event",
      "signature": "0xa5014519207066148cceb1209c0da9b5bc063b5c80fb25da53261714be79574b"
    },
    {
      "anonymous": false,
      "inputs": [
        {
          "indexed": false,
          "name": "size",
          "type": "uint256"
        }
      ],
      "name": "print_uint",
      "type": "event",
      "signature": "0x692c952151b417a9943d2d683df661e7680bee63e10c12a77b4681793f8c3435"
    },
    {
      "anonymous": false,
      "inputs": [
        {
          "indexed": false,
          "name": "section",
          "type": "uint256"
        },
        {
          "indexed": false,
          "name": "numberOfsection",
          "type": "uint256"
        },
        {
          "indexed": false,
          "name": "district",
          "type": "string"
        },
        {
          "indexed": false,
          "name": "docNo",
          "type": "uint256"
        },
        {
          "indexed": false,
          "name": "county",
          "type": "string"
        },
        {
          "indexed": false,
          "name": "province",
          "type": "string"
        },
        {
          "indexed": false,
          "name": "name",
          "type": "string"
        },
        {
          "indexed": false,
          "name": "nationality",
          "type": "string"
        },
        {
          "indexed": false,
          "name": "size",
          "type": "uint256"
        }
      ],
      "name": "print_document",
      "type": "event",
      "signature": "0x10a19bf8962a5ef50d20dc3f6b90c40a666b880a9215fc321bde36161b586116"
    },
    {
      "anonymous": false,
      "inputs": [
        {
          "indexed": false,
          "name": "array",
          "type": "uint256[]"
        }
      ],
      "name": "print_arrayuint",
      "type": "event",
      "signature": "0x7197ce5b3a06fe18260727614c230654460f7adcef1514e66678a01ab7cb772d"
    },
    {
      "constant": false,
      "inputs": [
        {
          "name": "id",
          "type": "address"
        },
        {
          "name": "section",
          "type": "uint256"
        },
        {
          "name": "numberOfsection",
          "type": "uint256"
        },
        {
          "name": "district",
          "type": "string"
        },
        {
          "name": "docNo",
          "type": "uint256"
        },
        {
          "name": "county",
          "type": "string"
        },
        {
          "name": "province",
          "type": "string"
        },
        {
          "name": "name",
          "type": "string"
        },
        {
          "name": "nationality",
          "type": "string"
        },
        {
          "name": "size",
          "type": "uint256"
        }
      ],
      "name": "sendDocument",
      "outputs": [],
      "payable": false,
      "stateMutability": "nonpayable",
      "type": "function",
      "signature": "0x93ebf88b"
    },
    {
      "constant": false,
      "inputs": [
        {
          "name": "_docNo",
          "type": "uint256"
        },
        {
          "name": "_mortgage",
          "type": "address"
        },
        {
          "name": "_mortgagee",
          "type": "address"
        },
        {
          "name": "_money",
          "type": "uint256"
        },
        {
          "name": "_datail",
          "type": "string"
        }
      ],
      "name": "saveTransaction",
      "outputs": [],
      "payable": false,
      "stateMutability": "nonpayable",
      "type": "function",
      "signature": "0x69deff30"
    },
    {
      "constant": false,
      "inputs": [
        {
          "name": "_traNo",
          "type": "uint256"
        }
      ],
      "name": "endTransaction",
      "outputs": [],
      "payable": false,
      "stateMutability": "nonpayable",
      "type": "function",
      "signature": "0x24281a96"
    },
    {
      "constant": false,
      "inputs": [
        {
          "name": "_docNo",
          "type": "uint256"
        }
      ],
      "name": "getDocument",
      "outputs": [],
      "payable": false,
      "stateMutability": "nonpayable",
      "type": "function",
      "signature": "0x3f9b250a"
    },
    {
      "constant": false,
      "inputs": [
        {
          "name": "_docNo",
          "type": "uint256"
        }
      ],
      "name": "getLastTransaction",
      "outputs": [],
      "payable": false,
      "stateMutability": "nonpayable",
      "type": "function",
      "signature": "0x45838c42"
    },
    {
      "constant": false,
      "inputs": [
        {
          "name": "_docNo",
          "type": "uint256"
        }
      ],
      "name": "getTransaction",
      "outputs": [],
      "payable": false,
      "stateMutability": "nonpayable",
      "type": "function",
      "signature": "0x33ea3dc8"
    }
  ],
  "bytecode": "0x608060405234801561001057600080fd5b50612429806100206000396000f3fe608060405260043610610099576000357c0100000000000000000000000000000000000000000000000000000000900463ffffffff16806324281a961461009e57806333ea3dc8146100d95780633f9b250a1461011457806345838c421461014f57806350d538461461018a57806369deff301461045d5780639366a13e1461057957806393ebf88b146106b2578063ad407de714610a1f575b600080fd5b3480156100aa57600080fd5b506100d7600480360360208110156100c157600080fd5b8101908080359060200190929190505050610a79565b005b3480156100e557600080fd5b50610112600480360360208110156100fc57600080fd5b8101908080359060200190929190505050610ae0565b005b34801561012057600080fd5b5061014d6004803603602081101561013757600080fd5b8101908080359060200190929190505050610dc1565b005b34801561015b57600080fd5b506101886004803603602081101561017257600080fd5b81019080803590602001909291905050506115b4565b005b34801561019657600080fd5b506101e3600480360360408110156101ad57600080fd5b81019080803573ffffffffffffffffffffffffffffffffffffffff1690602001909291908035906020019092919050505061184a565b604051808b73ffffffffffffffffffffffffffffffffffffffff1673ffffffffffffffffffffffffffffffffffffffff1681526020018a8152602001898152602001806020018881526020018060200180602001806020018060200187815260200186810386528d818151815260200191508051906020019080838360005b8381101561027d578082015181840152602081019050610262565b50505050905090810190601f1680156102aa5780820380516001836020036101000a031916815260200191505b5086810385528b818151815260200191508051906020019080838360005b838110156102e35780820151818401526020810190506102c8565b50505050905090810190601f1680156103105780820380516001836020036101000a031916815260200191505b5086810384528a818151815260200191508051906020019080838360005b8381101561034957808201518184015260208101905061032e565b50505050905090810190601f1680156103765780820380516001836020036101000a031916815260200191505b50868103835289818151815260200191508051906020019080838360005b838110156103af578082015181840152602081019050610394565b50505050905090810190601f1680156103dc5780820380516001836020036101000a031916815260200191505b50868103825288818151815260200191508051906020019080838360005b838110156104155780820151818401526020810190506103fa565b50505050905090810190601f1680156104425780820380516001836020036101000a031916815260200191505b509f5050505050505050505050505050505060405180910390f35b34801561046957600080fd5b50610577600480360360a081101561048057600080fd5b8101908080359060200190929190803573ffffffffffffffffffffffffffffffffffffffff169060200190929190803573ffffffffffffffffffffffffffffffffffffffff16906020019092919080359060200190929190803590602001906401000000008111156104f157600080fd5b82018360208201111561050357600080fd5b8035906020019184600183028401116401000000008311171561052557600080fd5b91908080601f016020809104026020016040519081016040528093929190818152602001838380828437600081840152601f19601f820116905080830192505050505050509192919290505050611bd2565b005b34801561058557600080fd5b506105bc6004803603604081101561059c57600080fd5b810190808035906020019092919080359060200190929190505050611f2b565b604051808781526020018681526020018573ffffffffffffffffffffffffffffffffffffffff1673ffffffffffffffffffffffffffffffffffffffff1681526020018473ffffffffffffffffffffffffffffffffffffffff1673ffffffffffffffffffffffffffffffffffffffff16815260200183815260200180602001828103825283818151815260200191508051906020019080838360005b83811015610672578082015181840152602081019050610657565b50505050905090810190601f16801561069f5780820380516001836020036101000a031916815260200191505b5097505050505050505060405180910390f35b3480156106be57600080fd5b50610a1d60048036036101408110156106d657600080fd5b81019080803573ffffffffffffffffffffffffffffffffffffffff16906020019092919080359060200190929190803590602001909291908035906020019064010000000081111561072757600080fd5b82018360208201111561073957600080fd5b8035906020019184600183028401116401000000008311171561075b57600080fd5b91908080601f016020809104026020016040519081016040528093929190818152602001838380828437600081840152601f19601f82011690508083019250505050505050919291929080359060200190929190803590602001906401000000008111156107c857600080fd5b8201836020820111156107da57600080fd5b803590602001918460018302840111640100000000831117156107fc57600080fd5b91908080601f016020809104026020016040519081016040528093929190818152602001838380828437600081840152601f19601f8201169050808301925050505050505091929192908035906020019064010000000081111561085f57600080fd5b82018360208201111561087157600080fd5b8035906020019184600183028401116401000000008311171561089357600080fd5b91908080601f016020809104026020016040519081016040528093929190818152602001838380828437600081840152601f19601f820116905080830192505050505050509192919290803590602001906401000000008111156108f657600080fd5b82018360208201111561090857600080fd5b8035906020019184600183028401116401000000008311171561092a57600080fd5b91908080601f016020809104026020016040519081016040528093929190818152602001838380828437600081840152601f19601f8201169050808301925050505050505091929192908035906020019064010000000081111561098d57600080fd5b82018360208201111561099f57600080fd5b803590602001918460018302840111640100000000831117156109c157600080fd5b91908080601f016020809104026020016040519081016040528093929190818152602001838380828437600081840152601f19601f8201169050808301925050505050505091929192908035906020019092919050505061205b565b005b348015610a2b57600080fd5b50610a5860048036036020811015610a4257600080fd5b810190808035906020019092919050505061223e565b60405180838152602001821515151581526020019250505060405180910390f35b610a8161226f565b604080519081016040528083815260200160011515815250905080600260008481526020019081526020016000206000820151816000015560208201518160010160006101000a81548160ff0219169083151502179055509050505050565b606060016000838152602001908152602001600020805480602002602001604051908101604052809291908181526020016000905b82821015610cb4578382906000526020600020906006020160c0604051908101604052908160008201548152602001600182015481526020016002820160009054906101000a900473ffffffffffffffffffffffffffffffffffffffff1673ffffffffffffffffffffffffffffffffffffffff1673ffffffffffffffffffffffffffffffffffffffff1681526020016003820160009054906101000a900473ffffffffffffffffffffffffffffffffffffffff1673ffffffffffffffffffffffffffffffffffffffff1673ffffffffffffffffffffffffffffffffffffffff16815260200160048201548152602001600582018054600181600116156101000203166002900480601f016020809104026020016040519081016040528092919081815260200182805460018160011615610100020316600290048015610c9c5780601f10610c7157610100808354040283529160200191610c9c565b820191906000526020600020905b815481529060010190602001808311610c7f57829003601f168201915b50505050508152505081526020019060010190610b15565b50505050905060608151604051908082528060200260200182016040528015610cec5781602001602082028038833980820191505090505b50905060008090505b8251811015610d43578281815181101515610d0c57fe5b90602001906020020151600001518282815181101515610d2857fe5b90602001906020020181815250508080600101915050610cf5565b507f7197ce5b3a06fe18260727614c230654460f7adcef1514e66678a01ab7cb772d816040518080602001828103825283818151815260200191508051906020019060200280838360005b83811015610da9578082015181840152602081019050610d8e565b505050509050019250505060405180910390a1505050565b60606000803373ffffffffffffffffffffffffffffffffffffffff1673ffffffffffffffffffffffffffffffffffffffff168152602001908152602001600020805480602002602001604051908101604052809291908181526020016000905b828210156111fd57838290600052602060002090600a020161014060405190810160405290816000820160009054906101000a900473ffffffffffffffffffffffffffffffffffffffff1673ffffffffffffffffffffffffffffffffffffffff1673ffffffffffffffffffffffffffffffffffffffff1681526020016001820154815260200160028201548152602001600382018054600181600116156101000203166002900480601f016020809104026020016040519081016040528092919081815260200182805460018160011615610100020316600290048015610f495780601f10610f1e57610100808354040283529160200191610f49565b820191906000526020600020905b815481529060010190602001808311610f2c57829003601f168201915b5050505050815260200160048201548152602001600582018054600181600116156101000203166002900480601f016020809104026020016040519081016040528092919081815260200182805460018160011615610100020316600290048015610ff55780601f10610fca57610100808354040283529160200191610ff5565b820191906000526020600020905b815481529060010190602001808311610fd857829003601f168201915b50505050508152602001600682018054600181600116156101000203166002900480601f0160208091040260200160405190810160405280929190818152602001828054600181600116156101000203166002900480156110975780601f1061106c57610100808354040283529160200191611097565b820191906000526020600020905b81548152906001019060200180831161107a57829003601f168201915b50505050508152602001600782018054600181600116156101000203166002900480601f0160208091040260200160405190810160405280929190818152602001828054600181600116156101000203166002900480156111395780601f1061110e57610100808354040283529160200191611139565b820191906000526020600020905b81548152906001019060200180831161111c57829003601f168201915b50505050508152602001600882018054600181600116156101000203166002900480601f0160208091040260200160405190810160405280929190818152602001828054600181600116156101000203166002900480156111db5780601f106111b0576101008083540402835291602001916111db565b820191906000526020600020905b8154815290600101906020018083116111be57829003601f168201915b5050505050815260200160098201548152505081526020019060010190610e21565b50505050905060008090505b81518110156115ae5782828281518110151561122157fe5b906020019060200201516080015114156115a1577f10a19bf8962a5ef50d20dc3f6b90c40a666b880a9215fc321bde36161b586116828281518110151561126457fe5b9060200190602002015160200151838381518110151561128057fe5b9060200190602002015160400151848481518110151561129c57fe5b906020019060200201516060015185858151811015156112b857fe5b906020019060200201516080015186868151811015156112d457fe5b9060200190602002015160a0015187878151811015156112f057fe5b9060200190602002015160c00151888881518110151561130c57fe5b9060200190602002015160e00151898981518110151561132857fe5b9060200190602002015161010001518a8a81518110151561134557fe5b906020019060200201516101200151604051808a8152602001898152602001806020018881526020018060200180602001806020018060200187815260200186810386528d818151815260200191508051906020019080838360005b838110156113bc5780820151818401526020810190506113a1565b50505050905090810190601f1680156113e95780820380516001836020036101000a031916815260200191505b5086810385528b818151815260200191508051906020019080838360005b83811015611422578082015181840152602081019050611407565b50505050905090810190601f16801561144f5780820380516001836020036101000a031916815260200191505b5086810384528a818151815260200191508051906020019080838360005b8381101561148857808201518184015260208101905061146d565b50505050905090810190601f1680156114b55780820380516001836020036101000a031916815260200191505b50868103835289818151815260200191508051906020019080838360005b838110156114ee5780820151818401526020810190506114d3565b50505050905090810190601f16801561151b5780820380516001836020036101000a031916815260200191505b50868103825288818151815260200191508051906020019080838360005b83811015611554578082015181840152602081019050611539565b50505050905090810190601f1680156115815780820380516001836020036101000a031916815260200191505b509e50505050505050505050505050505060405180910390a150506115b1565b8080600101915050611209565b50505b50565b606060016000838152602001908152602001600020805480602002602001604051908101604052809291908181526020016000905b82821015611788578382906000526020600020906006020160c0604051908101604052908160008201548152602001600182015481526020016002820160009054906101000a900473ffffffffffffffffffffffffffffffffffffffff1673ffffffffffffffffffffffffffffffffffffffff1673ffffffffffffffffffffffffffffffffffffffff1681526020016003820160009054906101000a900473ffffffffffffffffffffffffffffffffffffffff1673ffffffffffffffffffffffffffffffffffffffff1673ffffffffffffffffffffffffffffffffffffffff16815260200160048201548152602001600582018054600181600116156101000203166002900480601f0160208091040260200160405190810160405280929190818152602001828054600181600116156101000203166002900480156117705780601f1061174557610100808354040283529160200191611770565b820191906000526020600020905b81548152906001019060200180831161175357829003601f168201915b505050505081525050815260200190600101906115e9565b5050505090507fa5014519207066148cceb1209c0da9b5bc063b5c80fb25da53261714be79574b8160008151811015156117be57fe5b9060200190602002015160a001516040518080602001828103825283818151815260200191508051906020019080838360005b8381101561180c5780820151818401526020810190506117f1565b50505050905090810190601f1680156118395780820380516001836020036101000a031916815260200191505b509250505060405180910390a15050565b60006020528160005260406000208181548110151561186557fe5b90600052602060002090600a0201600091509150508060000160009054906101000a900473ffffffffffffffffffffffffffffffffffffffff1690806001015490806002015490806003018054600181600116156101000203166002900480601f0160208091040260200160405190810160405280929190818152602001828054600181600116156101000203166002900480156119445780601f1061191957610100808354040283529160200191611944565b820191906000526020600020905b81548152906001019060200180831161192757829003601f168201915b505050505090806004015490806005018054600181600116156101000203166002900480601f0160208091040260200160405190810160405280929190818152602001828054600181600116156101000203166002900480156119e85780601f106119bd576101008083540402835291602001916119e8565b820191906000526020600020905b8154815290600101906020018083116119cb57829003601f168201915b505050505090806006018054600181600116156101000203166002900480601f016020809104026020016040519081016040528092919081815260200182805460018160011615610100020316600290048015611a865780601f10611a5b57610100808354040283529160200191611a86565b820191906000526020600020905b815481529060010190602001808311611a6957829003601f168201915b505050505090806007018054600181600116156101000203166002900480601f016020809104026020016040519081016040528092919081815260200182805460018160011615610100020316600290048015611b245780601f10611af957610100808354040283529160200191611b24565b820191906000526020600020905b815481529060010190602001808311611b0757829003601f168201915b505050505090806008018054600181600116156101000203166002900480601f016020809104026020016040519081016040528092919081815260200182805460018160011615610100020316600290048015611bc25780601f10611b9757610100808354040283529160200191611bc2565b820191906000526020600020905b815481529060010190602001808311611ba557829003601f168201915b505050505090806009015490508a565b606060016000878152602001908152602001600020805480602002602001604051908101604052809291908181526020016000905b82821015611da6578382906000526020600020906006020160c0604051908101604052908160008201548152602001600182015481526020016002820160009054906101000a900473ffffffffffffffffffffffffffffffffffffffff1673ffffffffffffffffffffffffffffffffffffffff1673ffffffffffffffffffffffffffffffffffffffff1681526020016003820160009054906101000a900473ffffffffffffffffffffffffffffffffffffffff1673ffffffffffffffffffffffffffffffffffffffff1673ffffffffffffffffffffffffffffffffffffffff16815260200160048201548152602001600582018054600181600116156101000203166002900480601f016020809104026020016040519081016040528092919081815260200182805460018160011615610100020316600290048015611d8e5780601f10611d6357610100808354040283529160200191611d8e565b820191906000526020600020905b815481529060010190602001808311611d7157829003601f168201915b50505050508152505081526020019060010190611c07565b505050509050600081519050611dba61228b565b60c0604051908101604052808381526020018981526020018873ffffffffffffffffffffffffffffffffffffffff1681526020018773ffffffffffffffffffffffffffffffffffffffff168152602001868152602001858152509050600160008981526020019081526020016000208190806001815401808255809150509060018203906000526020600020906006020160009091929091909150600082015181600001556020820151816001015560408201518160020160006101000a81548173ffffffffffffffffffffffffffffffffffffffff021916908373ffffffffffffffffffffffffffffffffffffffff16021790555060608201518160030160006101000a81548173ffffffffffffffffffffffffffffffffffffffff021916908373ffffffffffffffffffffffffffffffffffffffff1602179055506080820151816004015560a0820151816005019080519060200190611f1d9291906122ee565b505050505050505050505050565b600160205281600052604060002081815481101515611f4657fe5b9060005260206000209060060201600091509150508060000154908060010154908060020160009054906101000a900473ffffffffffffffffffffffffffffffffffffffff16908060030160009054906101000a900473ffffffffffffffffffffffffffffffffffffffff1690806004015490806005018054600181600116156101000203166002900480601f0160208091040260200160405190810160405280929190818152602001828054600181600116156101000203166002900480156120515780601f1061202657610100808354040283529160200191612051565b820191906000526020600020905b81548152906001019060200180831161203457829003601f168201915b5050505050905086565b61206361236e565b610140604051908101604052808c73ffffffffffffffffffffffffffffffffffffffff1681526020018b81526020018a81526020018981526020018881526020018781526020018681526020018581526020018481526020018381525090506000808c73ffffffffffffffffffffffffffffffffffffffff1673ffffffffffffffffffffffffffffffffffffffff168152602001908152602001600020819080600181540180825580915050906001820390600052602060002090600a02016000909192909190915060008201518160000160006101000a81548173ffffffffffffffffffffffffffffffffffffffff021916908373ffffffffffffffffffffffffffffffffffffffff160217905550602082015181600101556040820151816002015560608201518160030190805190602001906121a39291906122ee565b506080820151816004015560a08201518160050190805190602001906121ca9291906122ee565b5060c08201518160060190805190602001906121e79291906122ee565b5060e08201518160070190805190602001906122049291906122ee565b506101008201518160080190805190602001906122229291906122ee565b5061012082015181600901555050505050505050505050505050565b60026020528060005260406000206000915090508060000154908060010160009054906101000a900460ff16905082565b6040805190810160405280600081526020016000151581525090565b60c0604051908101604052806000815260200160008152602001600073ffffffffffffffffffffffffffffffffffffffff168152602001600073ffffffffffffffffffffffffffffffffffffffff16815260200160008152602001606081525090565b828054600181600116156101000203166002900490600052602060002090601f016020900481019282601f1061232f57805160ff191683800117855561235d565b8280016001018555821561235d579182015b8281111561235c578251825591602001919060010190612341565b5b50905061236a91906123d8565b5090565b61014060405190810160405280600073ffffffffffffffffffffffffffffffffffffffff1681526020016000815260200160008152602001606081526020016000815260200160608152602001606081526020016060815260200160608152602001600081525090565b6123fa91905b808211156123f65760008160009055506001016123de565b5090565b9056fea165627a7a72305820e40d1e9c56e531e6800c4112d795dd21af9ffcc5722fa0890e4bf53d4dc35f8e0029",
  "source": "pragma solidity >=0.4.0 <0.6.0;\r\n\r\n\r\ncontract Test_FullData {\r\n\r\n    event print_string(string str);\r\n    event print_uint(uint size);\r\n    event print_document(uint section,\r\n        uint numberOfsection,\r\n        string district,\r\n        uint docNo,\r\n        string county,\r\n        string province,\r\n        string name,\r\n        string nationality,\r\n        uint size);\r\n    event print_arrayuint(uint[] array);\r\n\r\n    //()   key\r\n    struct document {\r\n        address id;\r\n        //1. \r\n        uint section; //\r\n        uint numberOfsection; //\r\n        string district; //\r\n        //2.\r\n        uint docNo; // \r\n        string county; //\r\n        string province; //\r\n        //3.\r\n        string name; //  frisname+lastname\r\n        string nationality; //\r\n        //4.\r\n        uint size;\r\n        //5.>    \r\n    }\r\n    mapping(address => document[]) public allDocument;\r\n    //()\r\n    struct transaction {\r\n        uint traNo;\r\n        //..other data\r\n        uint docNo; // \r\n        address mortgage; // \r\n        address mortgagee; // \r\n        uint money; // \r\n        string detail; // \r\n    }\r\n    mapping(uint => transaction[]) public allList;\r\n\r\n\r\n\r\n    //()\r\n    struct endtransaction {\r\n        uint traNo;\r\n        //..other data\r\n        bool status;\r\n    }\r\n    mapping(uint => endtransaction) public allEndTransaction;\r\n\r\n    //\r\n    function sendDocument(address id,\r\n    uint section,\r\n    uint numberOfsection,\r\n    string memory district,\r\n    uint docNo,\r\n    string memory county,\r\n    string memory province,\r\n    string memory name,\r\n    string memory nationality,\r\n    uint size) public {\r\n        //authen by admin...\r\n        //require\r\n        document memory newDocument = document(id,\r\n        section,\r\n        numberOfsection,\r\n        district,\r\n        docNo,\r\n        county,\r\n        province,\r\n        name,\r\n        nationality,\r\n        size);\r\n        allDocument[id].push(newDocument);\r\n    }\r\n\r\n    //\r\n    function saveTransaction(uint _docNo,address _mortgage,address _mortgagee,uint _money,string memory _datail) public {\r\n        //require\r\n        //\r\n        //if(checkContract(_docNo)){\r\n        // uint _traNo=1;\r\n        // for(uint idx = 0; idx < allList.length; idx++){\r\n        //     _traNo=_traNo+allList[idx].length;\r\n        // }\r\n        transaction[] memory tmpTran = allList[_docNo];\r\n        uint _traNo = tmpTran.length; //   ****\r\n        transaction memory newTransaction = transaction(_traNo, _docNo,  _mortgage, _mortgagee, _money, _datail);\r\n        allList[_docNo].push(newTransaction);\r\n        //}else{\r\n          //  emit print_string(\"fail\");\r\n        //}\r\n    }\r\n    //\r\n    function endTransaction(uint  _traNo) public {\r\n        //require\r\n        //\r\n        endtransaction memory newEndTransaction =  endtransaction(_traNo, true);\r\n        allEndTransaction[_traNo] = newEndTransaction;\r\n    }\r\n    //\r\n    function getDocument(uint _docNo) public {\r\n        //authen by user...\r\n        //require\r\n        document[] memory tmpDoc = allDocument[msg.sender];\r\n        for(uint idx = 0; idx < tmpDoc.length; idx++){\r\n            if(tmpDoc[idx].docNo==_docNo){\r\n                emit print_document(tmpDoc[idx].section,\r\n                tmpDoc[idx].numberOfsection,\r\n                tmpDoc[idx].district,\r\n                tmpDoc[idx].docNo,\r\n                tmpDoc[idx].county,\r\n                tmpDoc[idx].province,\r\n                tmpDoc[idx].name,\r\n                tmpDoc[idx].nationality,\r\n                tmpDoc[idx].size);\r\n                return;\r\n            }\r\n        }\r\n    }\r\n    //  \r\n    function getLastTransaction(uint _docNo) public {\r\n        //authen by user...\r\n        //require\r\n        transaction[] memory tmpTran = allList[_docNo];\r\n        emit print_string(tmpTran[0].detail);\r\n        return;\r\n    }\r\n\r\n    function getTransaction(uint _docNo) public {\r\n        //authen by user...\r\n        //require\r\n        transaction[] memory tmpTran = allList[_docNo];\r\n        uint[] memory output = new uint[](tmpTran.length);\r\n        for(uint idx = 0; idx < tmpTran.length; idx++){\r\n            output[idx] = tmpTran[idx].traNo;\r\n        }\r\n        emit print_arrayuint(output);\r\n        return;\r\n    }\r\n\r\n    //\r\n    function checkContract(uint _docNo) private view returns(bool) {\r\n        //authen by user...\r\n        //require\r\n        transaction[] memory tmpTran = allList[_docNo];\r\n        if(tmpTran.length==0){\r\n            return true;\r\n        } else {\r\n            for(uint idx = 0; idx < tmpTran.length; idx++){\r\n                if(allEndTransaction[tmpTran[idx].traNo].status==true){\r\n                    return true;\r\n                }\r\n            }\r\n            return false;\r\n        }\r\n    }\r\n}\r\n",
  "sourcePath": "C:/Users/Swiss/Desktop/test/contracts/Test_FullData.sol",
  "compiler": {
    "name": "solc",
    "version": "0.5.0+commit.1d4f565a.Emscripten.clang"
  },
  "schemaVersion": "3.0.0",
  "updatedAt": "2019-01-18T12:48:52.784Z",
  "devdoc": {
    "methods": {}
  },
  "userdoc": {
    "methods": {}
  }
}